:100000000C9481040C94A9040C94A9040C94A904E4
:100010000C94A9040C94A9040C94A9040C94A904AC
:100020000C94A9040C94A9040C94220F0C94910F25
:100030000C94A9040C94A9040C94A9040C94A9048C
:100040000C94A9040C94A9040C94A9040C94A9047C
:100050000C94A9040C94A9040C94A9040C94C31145
:100060000C94A9040C94A9040C94A9040C94A9045C
:100070000C94A9040C94A9040C94A9040C94A9044C
:100080000C94A9040C94A9040C94A9040C94A9043C
:100090000C94A9040C94A9040C94A9040C94A9042C
:1000A0000C94A9040C94A9040C94A9044F00010019
:1000B00021000F004F00100021000F004F001F0013
:1000C00021000F004F002E0021000F003D00010015
:1000D000210011003D001200210011005E0001000E
:1000E000210011005E00120021001100010001003A
:1000F0002100110001001200210011000100230065
:100100002100110014001C001700090054001C00FD
:10011000170009000A0012001A001A00330012002A
:100120001A001A005D0012001A001A0000000600F2
:100130000C00120019001F0025002B0031003800B0
:100140003E0044004A00500056005C006100670019
:100150006D00730078007E00830088008E0093009D
:1001600098009D00A200A700AB00B000B500B90048
:10017000BD00C100C500C900CD00D100D400D80029
:10018000DB00DE00E100E400E700EA00EC00EE0046
:10019000F100F300F400F600F800F900FB00FC00A9
:1001A000FD00FE00FE00FF00FF00FF0004083E0906
:1001B000093E3F25251A1E2121123F21211E3F25E0
:1001C00025213F0505011E21293A3F04043F213F17
:1001D00021001021211F3F040A313F2020203F022F
:1001E000023F3F02043F1E21211E3F0909061E2136
:1001F000112E3F09093622252519013F01011F2033
:10020000201F0F10201F3F10103F3B04043B03042E
:100210003807312D2321102A2A3C3F2424181C2280
:1002200022141824243F1C2A2A2C047E05014C5237
:10023000523E3F040438243D20004040443D3F08E6
:100240001422213F20003E04043E3E04023C1C22B6
:10025000221C7E22221C1C22227E3E040204242A0E
:100260002A12021F22201E20201E0E10201E3E10C9
:10027000103E360808364E50503E322A26221E299D
:10028000251E223F2000322929261221251A0C0A78
:100290003F08172525191E252518013905031A259C
:1002A000251A0629291E002F00000020000000004A
:1002B0000000003E5B4F5B3E3E6B4F6B3E1C3E7C46
:1002C0003E1C183C7E3C181C577D571C1C5E7F5EF4
:1002D0001C00183C1800FFE7C3E7FF0018241800B3
:1002E000FFE7DBE7FF30483A060E2629792926404A
:1002F0007F050507407F05253F5A3CE73C5A7F3E76
:100300001C1C08081C1C3E7F14227F22145F5F0007
:100310005F5F06097F017F006689956A60606060A3
:100320006094A2FFA29408047E040810207E20108E
:1003300008082A1C08081C2A08081E101010100C97
:100340001E0C1E0C30383E3830060E3E0E060000E5
:1003500000000000005F00000007000700147F1489
:100360007F14242A7F2A12231308646236495620F8
:10037000500008070300001C2241000041221C001D
:100380002A1C7F1C2A08083E0808008070300008DC
:1003900008080808000060600020100804023E51B0
:1003A00049453E00427F4000724949494621414942
:1003B0004D331814127F1027454545393C4A4949A9
:1003C0003141211109073649494936464949291E13
:1003D0000000140000004034000000081422411402
:1003E00014141414004122140802015909063E4154
:1003F0005D594E7C1211127C7F494949363E41417C
:1004000041227F4141413E7F494949417F090909D4
:10041000013E414151737F0808087F00417F410040
:100420002040413F017F081422417F404040407FEF
:10043000021C027F7F0408107F3E4141413E7F093C
:100440000909063E4151215E7F091929462649497D
:10045000493203017F01033F4040403F1F204020BD
:100460001F3F4038403F63140814630304780403BB
:100470006159494D43007F41414102040810200069
:100480004141417F040201020440404040400003DA
:1004900007080020545478407F28444438384444A6
:1004A0004428384444287F385454541800087E099E
:1004B0000218A4A49C787F0804047800447D4000BE
:1004C0002040403D007F1028440000417F40007CD8
:1004D000047804787C080404783844444438FC18D0
:1004E00024241818242418FC7C08040408485454B4
:1004F000542404043F44243C4040207C1C204020E1
:100500001C3C4030403C44281028444C9090907C47
:100510004464544C44000836410000007700000059
:100520004136080002010204023C2623263C1EA19B
:10053000A161123A4040207A3854545559215555FA
:1005400079412154547841215554784020545579AB
:10055000400C1E527212395555555939545454593C
:1005600039555454580000457C410002457D4200F5
:1005700001457C40F0292429F0F0282528F07C54FE
:100580005545002054547C547C0A097F493249491E
:1005900049323248484832324A4848303A4141218B
:1005A0007A3A42402078009DA0A07D3944444439E5
:1005B0003D4040403D3C24FF2424487E4943662B77
:1005C0002FFC2F2BFF0929F620C0887E0903205419
:1005D0005479410000447D413048484A3238404017
:1005E000227A007A0A0A727D0D19317D2629292F77
:1005F00028262929292630484D402038080808088F
:1006000008080808382F10C8ACBA2F102834FA0090
:10061000007B000008142A142222142A14089500D2
:10062000220095AA005500AAAA55AA55AA000000C2
:10063000FF00101010FF00141414FF001010FF0032
:10064000FF1010F010F0141414FC001414F700FF45
:100650000000FF00FF1414F404FC141417101F1002
:10066000101F101F1414141F00101010F0000000B1
:10067000001F101010101F10101010F010000000BC
:10068000FF101010101010101010FF10000000FFCD
:10069000140000FF00FF00001F10170000FC04F40E
:1006A00014141710171414F404F40000FF00F714C6
:1006B000141414141414F700F7141414171410104D
:1006C0001F101F141414F4141010F010F000001F69
:1006D000101F0000001F14000000FC140000F010A8
:1006E000F01010FF10FF141414FF141010101F004E
:1006F000000000F010FFFFFFFFFFF0F0F0F0F0FF50
:10070000FFFF0000000000FFFF0F0F0F0F0F384426
:100710004438447C2A2A3E147E02020606027E02E7
:100720007E0263554941633844443C04407E201EA8
:100730002006027E020299A5E7A5991C2A492A1CD7
:100740004C7201724C304A4D4D303048784830BCC4
:10075000625A463D3E494949007E0101017E2A2AEE
:100760002A2A2A44445F444440514A444040444A6F
:1007700051400000FF0103E080FF000008086B6BA0
:10078000083612362436060F090F06000018180026
:1007900000001010003040FF0101001F01011E0089
:1007A000191D1712003C3C3C3C0000000000F0F812
:1007B0009C8E8783878E9CF8F00000FEFF03030366
:1007C0000303070EFCF80000FEFF03030303030707
:1007D0000EFCF80000FFFF00000000000000FFFF1B
:1007E0000000FEFF8383838383C7EE7C380000F81C
:1007F000FC0E07030303070EFCF800003F7FE0C078
:100800008080C0E07F3FFFFF01010101010101FF86
:10081000FF0000FFFF0C0C0C0C1C3E77E3C1000036
:100820007FFFC0C0C0C0C0E0703F1F00001F3F700E
:10083000E0C0C0C0E0703F1F00007FFFC1C1C1C168
:10084000C1E3773E1C00001F3F70E0C0C0C0E070F5
:100850003F1F000000000001FFFF01000000D5F075
:100860008D14A1C881CFD9F1AF20000A2042617454
:10087000746C65436174000A204D6F746872610086
:10088000456E656D6965733A2000080B000202022F
:10089000000009040000010202000005240010010C
:1008A00005240101010424020605240600010705B0
:1008B000810310004009040100020A00000007053E
:1008C00002024000000705830240000004030904FF
:1008D00012010002EF0201404123368000010102B3
:1008E000030141726475696E6F204C4C4300417284
:1008F0006475696E6F204C656F6E6172646F000085
:10090000401211241FBECFEFDAE0DEBFCDBF11E0F1
:10091000A0E0B1E0E0E9F8E402C005900D92AE3A43
:10092000B107D9F727E0AEEAB1E001C01D92AF3CB4
:10093000B207E1F714E0C1E8D4E004C02197FE015A
:100940000E94D123C038D107C9F70E94D0120C945D
:1009500046240C940000480F592F511D14161506FB
:1009600084F5803891056CF597FF02C090E080E037
:100970004138510514F040E850E0481BFB01E77096
:10098000FF2721E001C0220FEA95EAF777FF02C0B6
:10099000695F7F4FFB0133E0F595E7953A95E1F705
:1009A000F695FE2FEE27F795E795E80FF91FED5026
:1009B000FD4F415030F08191DF011197822B8C93D4
:1009C000F8CF089597FF02C0905E0895811520E248
:1009D00092070CF0905208952CE030E0EEE9F7E039
:1009E000A0E0B0E0BD0180E00E9449050E9438050A
:1009F000BD011296A20FB31F8217930799F38F5F61
:100A00009F4F21F4AF5FBF40DB0178F00E947B086D
:100A100040E05091EF026091F00280E20E943D05BB
:100A2000599A0E942A07A0E0B0E07CEF0E947B0860
:100A30004A2F5091EF025B0F6091F002611D82E03E
:100A40000E943D05832F71FD822F70FD81910E94D0
:100A50005505759518F42150304019F01196AA23C8
:100A600089F7599A0E942A0721153105F9F6089548
:100A70000E948005982F0C94860559980E94550570
:100A8000862F0E945505852F0E945505842F0C94B2
:100A90005505462F5091EF02570F6091F002681FE5
:100AA00083E00E943D051EBC08958EBD00008EB5FA
:100AB0000DB407FEFCCF0895EEE9F7E0ACE0B0E03E
:100AC00060E070E080E00E9449059D01AF0160E0B8
:100AD0000E947B058217930751F4D901FA0160E067
:100AE0000E94800581931197D9F761E0F1CF0E94B0
:100AF0008605862F08950E948005982F0C94800506
:100B00000DB407FEFDCF8EB51EBC08950DB407FED3
:100B1000FDCF8EB5599A0895E3EFF2E0A0E0B8E07A
:100B200000800EBC8111012C1197A0FDFDCF019218
:100B3000B9F70DB40895FC018091EE02882311F1FC
:100B40003FB7F89482E08093E9002091F200822F71
:100B500090E01816190614F481E090E0882339F02B
:100B6000289844E64093ED024091F100408322230F
:100B700039F02091F200211103C02BE62093E80008
:100B80003FBF08958FEF9FEF08952FB7F89483E04C
:100B90008093E9009091E800892F807295FF04C04E
:100BA0009091F20080E4891B2FBF08958091E502A7
:100BB00081110DC082E08093E10284E08093E20223
:100BC0001092E4021092E30281E08093E50281EE4C
:100BD00092E00895CF93DF931F92CDB7DEB769837C
:100BE000DC01ED91FC910280F381E02D41E050E0C9
:100BF000BE016F5F7F4F09950F90DF91CF910895F0
:100C000083E08093E9008091F200882319F08AE361
:100C10008093E80008950E94C50590E00895CF9361
:100C2000DF931F92CDB7DEB7FC018485958597FDD4
:100C300008C02FEF3FEF358724870F90DF91CF91CA
:100C40000895CE0101960E949B05019719F48981B0
:100C500090E0F3CF8FEF9FEFF0CF0F931F93CF93E1
:100C6000DF931F92CDB7DEB78C01FC01848595859B
:100C700097FF0BC0CE0101960E949B05019771F46E
:100C8000898190E0F80195878487F80184859585AE
:100C90000F90DF91CF911F910F9108958FEF9FEFEC
:100CA000F1CFFC018485958597FD0BC09FB7F89423
:100CB00082E08093E9008091F2009FBF90E001966E
:100CC00008959FB7F89482E08093E9008091F20044
:100CD0009FBF90E008954091DB025091DC0220918B
:100CE000D9023091DA0242175307B4F49091E80028
:100CF0009570E1F39091E80092FD19C08093F100A6
:100D00008091DB029091DC0201968F739927892BE9
:100D100019F48EEF8093E8008091DB029091DC0261
:100D200001969093DC028093DB0281E0089580E0DD
:100D30000895DF92EF92FF920F931F93CF93DF936B
:100D4000D82E8A01EB017B01E40EF51ECE15DF05DE
:100D500059F0D7FE12C0FE0184910E946B062196C5
:100D60008111F4CF0FEF1FEFC801DF91CF911F91D9
:100D70000F91FF90EF90DF9008958881EECF0F9351
:100D80001F93CF93DF931F92CDB7DEB782E08983A5
:100D900042E450E06AE878E080E80E9499060E9408
:100DA000D605DC0112960D911C910115110589F0F3
:100DB000D801ED91FC910280F381E02DBE016F5FBF
:100DC0007F4FC801099597FD04C0F8010085118582
:100DD000ECCF89810F90DF91CF911F910F910895F2
:100DE000615030F02091F100FC0120830196F8CF92
:100DF000289884E68093ED020895AF92BF92CF9237
:100E0000DF92EF92FF920F931F93CF93DF936C01CA
:100E10007B018B01040F151FEB015E01AE18BF08AB
:100E2000C017D10759F06991D601ED91FC9101905D
:100E3000F081E02DC6010995892B79F7C501DF9175
:100E4000CF911F910F91FF90EF90DF90CF90BF90C7
:100E5000AF900895599885E00E94550580E00E9462
:100E6000550580FDFBCF599A0895462F5091F10208
:100E7000570F6091F202681F83E00E943D051EBC7F
:100E800008954F925F926F927F928F929F92AF924E
:100E9000BF92CF92DF92EF92FF920F931F93CF9367
:100EA000DF936C017B013901842E402E842FB90120
:100EB0000E9435070E947B05582EC82FD92F0E940B
:100EC0003805FC019E012C0D3D1D121613060CF079
:100ED000F2C040E8C416D1040CF0EDC08E0D9F1D89
:100EE000181619060CF0E7C040E4E416F1040CF003
:100EF000E2C0D7FE0BC0AA24BB24AC18BD085A1808
:100F0000203831055CF050E8552E08C021383105F5
:100F10001CF020E8522E5C18B12CA12CF7FEDCC08E
:100F2000002711270E191F09087FCF01801B910B85
:100F30009E2E901A8134910534F08E2D8195877004
:100F400040E4942E980E15950795159507951595DF
:100F50000795CF01079696958795969587959695CF
:100F60008795489E9001499E300D1124200F311F16
:100F700040E0BE010D2E000C880B0E949F23A82F7D
:100F8000CB018A0D9B1DA11DB7FCAA95482D93018D
:100F90002C5F3F4F4F4F3C018A2E660C771C881CFC
:100FA000620E731E841EC70123E0959587952A95CE
:100FB000E1F7080F41E0E1FC44E0E0FC440FE2FC13
:100FC000429520E80203D0011124AC0DBD1DAA0DED
:100FD000BB1DAD50BD4FCC0FDD1F30E1292D599801
:100FE00083E08EBD8091F1029091F202870D981DF1
:100FF0000DB407FEFDCF9EBD0DB407FEFDCF8EBD27
:101000000DB407FEFDCF6EBC6C0E7D1E811C0DB4B1
:1010100007FEFDCF1EBC330F073014F4089440FDCB
:101020008894379552E021FD58E022FD529520FF2B
:1010300056955A9511F028300CF05FEF952D0EB4AF
:101040001EBC33FD0526852F30FD802D32FD00248A
:10105000049EB00134FB36F4C895C89511240EB433
:101060001EBC30FD082E049E003034F08C9131FF00
:101070006827602168276C93A058BF4F37FF06C0D0
:101080008C9131FF7827712178277C93112435FDCD
:10109000A15835FFAF57B1099A9589F6852D35FFCF
:1010A00081958058A80FB11D285003950DB4599A09
:1010B00012160CF494CFDF91CF911F910F91FF90F6
:1010C000EF90DF90CF90BF90AF909F908F907F90E8
:1010D0006F905F904F9008959E2E813491051CF083
:1010E00080E4982E9E1810E000E033CF59980E94BB
:1010F0005505599A089586E00C9476083FB7F89400
:101100008091AF019091B001A091B101B091B20175
:1011100026B5A89B05C02F3F19F00196A11DB11D52
:101120003FBFBA2FA92F982F8827BC01CD01620F8E
:10113000711D811D911D42E0660F771F881F991F49
:101140004A95D1F708958F929F92AF92BF92CF9216
:10115000DF92EF92FF926B017C010E947E084B01AF
:101160005C01C114D104E104F104B9F00E947E08CD
:10117000681979098A099B09683E734081059105C0
:1011800080F381E0C81AD108E108F10828EE820E48
:1011900023E0921EA11CB11CE4CFFF90EF90DF90E2
:1011A000CF90BF90AF909F908F9008958F929F9215
:1011B000AF92BF92CF92DF92EF92FF920F931F9365
:1011C000CF93DF936C017B018A01809123018823F7
:1011D00009F45CC08091EE02882309F457C0809125
:1011E000E00280FF05C08091E00082608093E00013
:1011F000E801B12C8AEFA82E93E0892E2AE3922EE3
:10120000209711F4BB20D9F10E94C50581110AC0B5
:10121000AA94AA20D9F161E070E080E090E00E94F9
:10122000A308EECF8C171D0611F00CF08C2F9FB782
:10123000F8948092E9002091E80025FD02C09FBF4C
:10124000DFCF282F30E0C21BD30BF701815020F0F5
:1012500041914093F100FACFE20EF31EBB2021F042
:101260009092E800B12CEBCF8091E80085FDE7CFAC
:101270009092E800BB24B394209709F3F3CF5D98D4
:1012800084E68093DF02101611063CF081E090E0C6
:10129000F6019383828310E000E0C801DF91CF91D3
:1012A0001F910F91FF90EF90DF90CF90BF90AF9084
:1012B0009F908F9008954F925F926F927F928F923E
:1012C0009F92AF92BF92CF92DF92EF92FF920F93D5
:1012D0001F93CF93DF934C015901FC2DC02FD0E019
:1012E000CE01880D991D181619060CF067C09B01D8
:1012F0002E0D311D121613060CF060C060347105FE
:101300000CF05CC04115510509F458C0262F277018
:10131000F22EDB0177FD179633E0B595A7953A9548
:10132000E1F73A2F77FF04C0FF2011F03FEF3A0FAB
:10133000662777276819790997FC02C070E060E09A
:10134000803891050CF44BC090E89819961BA32F98
:10135000032E000CBB0B1A2F10953F3F0CF010E032
:1013600021E08E2D877009F420E0E694E694E6945F
:10137000E20EAE0DB11D19971CF028E0E22EE31A23
:10138000E11A310F20E83203D0011124A80DB91D54
:10139000A60FB71F019F600D711D1124460F571F27
:1013A0000F2D0F2C000C110BF33009F41CC1C8F4E5
:1013B000F13009F4D0C0F23009F47CC0DF91CF9154
:1013C0001F910F91FF90EF90DF90CF90BF90AF9063
:1013D0009F908F907F906F905F904F900895902F87
:1013E000B5CFFA3FB1F1232F2E0DFB3F39F732175E
:1013F00029F3BD016D507D4FD12CC12CC91608F0C9
:10140000A4C0FA01EC0DFD1DE491F0E04F01002EA7
:1014100002C0880C991C0A94E2F737FD06C0FB0154
:101420008081E82CE0948E218083FF2061F03730AA
:1014300054F45B01F0E8AF0EB11CE92CE094F50127
:1014400080818E218083FFEFCF1ADF0A6F5F7F4F8D
:10145000D5CF232F2E0D321709F4B0CFBD016D501B
:101460007D4FD12CC12CC91608F069C0FA01EC0DD2
:10147000FD1DE491F0E04F01002E02C0880C991C84
:101480000A94E2F737FD04C0FB018081882980833C
:10149000FF2051F0373044F45B01F0E8AF0EB11C8F
:1014A000F501808189298083FFEFCF1ADF0A6F5F02
:1014B0007F4FD9CF6FEF70E00F2C02C0660F771F00
:1014C0000A94E2F760957095772E232F2E0D321730
:1014D00009F474CFFD01ED50FD4F6F01B12CA12C2B
:1014E000A91638F5FA01EA0DFB1DE491F0E02F0191
:1014F000002E02C0440C551C0A94E2F737FD05C0CB
:10150000F6018081862384298083FF2059F03730BB
:101510004CF44601F0E88F0E911CF4018081872184
:1015200085298083FFEFAF1ABF0A8FEFC81AD80A48
:10153000D7CF3F5F4C0F5D1FA058BF4FC8CF3F5F55
:101540004C0F5D1FA058BF4F86CF3F5F4C0F5D1FF4
:10155000A058BF4F4CCF6A0D7B1D232F2E0D321785
:1015600009F42CCFFD01ED50FD4F6F01B12CA12CE2
:10157000A91688F5FB01EA0DFB1D8490912C002E25
:1015800002C0880C991C0A94E2F780949094FA01A6
:10159000EA0DFB1D6490712C002E02C0660C771CB6
:1015A0000A94E2F737FD05C0F6018081882186297B
:1015B0008083FF2049F037303CF4F601E058FF4FBC
:1015C0008081892187298083FFEFAF1ABF0A8FEFBF
:1015D000C81AD80ACDCF3F5F4C0F5D1F6C0F7D1F1F
:1015E000A058BF4FBCCFC92ED12CFA01E60FF71F70
:1015F000AD50BD4F00E810E00C191D09CC19DD09F4
:10160000BE01660F771F41E050E06A010F2C01C058
:10161000CC0C0A94EAF7592F2E2D792ECF93DF9315
:10162000ED01EF96EF9622968590A590FF2059F058
:101630008C9C4001AC9C500137302CF4E880B09475
:10164000EB20E928E99233233AF0EC90A094EA20C9
:10165000E828ED920C942D0B11965A9529F72A95AE
:1016600051F0572D33951124E60FF11DA00FB11D38
:10167000C00FD11DD9CFDF91CF9111249FCE2D9ACC
:101680000895BC0190E080E00C94A3088FB1809590
:10169000807F669B88601C9B846008959091CC013C
:1016A000982329F49091CD01982381E009F480E0FA
:1016B0000895CF93C82F0E94460B982F9C2381E05A
:1016C0009C1380E0CF91089580389105B8F4603480
:1016D0007105A0F420E191E061FD94E060FD990FB7
:1016E00062FD9295687F269FD0011124A80FAD500E
:1016F000BD4F8C9140FF03C0892B8C93089590952A
:101700008923FBCF8F929F92AF92BF92CF92DF92AD
:10171000EF92FF920F931F93CF93DF936D3089F079
:10172000C090D001D090D1016A30D1F41092CF0195
:101730001092CE0188E0C80ED11CD092D101C09287
:10174000D00181E090E0DF91CF911F910F91FF9048
:10175000EF90DF90CF90BF90AF909F908F900895C3
:101760000091CE011091CF01E5E06E9FE0011124C0
:10177000C255DD4F4801F12CF5E0E12CFF1629F0B0
:10178000CE010196FE01E490EC01B12CA12C4E2D6E
:101790004170B6016A0D7B1DC4010E94640BE69482
:1017A000FFEFAF1ABF0A88E0A816B10481F7F394DF
:1017B000EFEF8E1A9E0AF6E0FF12DECF0A5F1F4F90
:1017C0001093CF010093CE01BCCFDF92EF92FF9236
:1017D0000F931F93CF93DF937C01D22E8B01040FC5
:1017E000111DEB0177FF02C0D0E0C0E0C801013459
:1017F000110514F080E490E0C817D9073CF44D2D92
:10180000BE01C7010E94640B2196F0CFDF91CF91FA
:101810001F910F91FF90EF90DF900895EF92FF924C
:101820000F931F93CF93DF937C018B01C42FD22F93
:101830006034710510F40E94AB04B8016D0F711D86
:10184000615071096034710520F44C2FC7010E946A
:10185000AB0421E04D2FB801C7010E94E50BC70181
:101860008C0F911D21E04D2FB8010197DF91CF9191
:101870001F910F91FF90EF900C94E50BCF92EF9298
:101880000F93CF93DF93EC018E816A3069F49D81D1
:101890009C836985860F8E8381E090E0DF91CF91F4
:1018A0000F91EF90CF9008956A3378F4603308F089
:1018B00051C0613209F450C09FE36E3291F09885B7
:1018C0009C5F8C81890F8C83E7CF6134C0F36B35CB
:1018D00030F09FE9960F9A3190F799EB01C09FEB9A
:1018E000960F61E0680F062E000C770BAC810A2E74
:1018F000000CBB0BECEAF1E02DEA31E08F81813086
:1019000069F50491F901E4904EEA51E09923D1F090
:1019100041E050E08E2D877011F450E040E02E2D14
:10192000269526952695240F352F311D029FF0010F
:10193000039FF00D11249E9FA0019F9F500D112425
:1019400042555E4F9AEFC92E30E020E0CD010E9453
:101950005B09B5CF94E0C4CF9EE3C3CF0491F901F6
:10196000E4904EEA51E09923D1F041E050E08E2D11
:10197000877011F450E040E02E2D2695269526958F
:10198000240F352F311D029FF001039FF00D11240C
:101990009E9FA0019F9F500D112442555E4F8BEFDB
:1019A000C82ED2CF0F931F93CF93DF938C01D0E03B
:1019B000C0E0F801EC0FFD1F6491662341F081EC5B
:1019C00097E00E943E0C892B11F02196F2CFCE01B8
:1019D000DF91CF911F910F9108950F93FC01DB01CF
:1019E0006D917C91072E000C880B990B982F872FF7
:1019F000762F662720813181428153810E94E62320
:101A000000E10E942024B901CA010F9108950E94AB
:101A10005C05811104C084E08093D80208950E947F
:101A20005C0580919E078093AE0780919F079091FF
:101A3000A007A091A1078093AF079093B007A09350
:101A4000B1078091A2078093B20786E0E3EAF7E04E
:101A5000A4EBB7E001900D928A95E1F78091A90778
:101A60008093BD0785E0D8CFCF93DF93CEE9D7E051
:101A70008AEA97E0FC012481288325813681478109
:101A800029833A834B8320852C8326E0E4EBF7E01F
:101A9000A3EAB7E001900D922A95E1F7FC01838952
:101AA0008B87DF91CF910895803419F480E091E025
:101AB0000895E82FF0E0EE0FFF1FE45DFE4F8591E3
:101AC00094910895982F8F7392959695969593700B
:101AD000923049F0933029F0913041F090E4981B16
:101AE000892F0C94540D90E4981B892F0E94540D5B
:101AF0009195819591090895982F8F739295969558
:101B000096959370923069F0933041F0913011F0D6
:101B10000C94540D90E4981B892FFACF90E4981BF5
:101B2000892F0E94540D91958195910908952F92C6
:101B30003F924F925F926F927F928F929F92AF925D
:101B4000BF92CF92DF92EF92FF920F931F93CF93AA
:101B5000DF936A012091AC073091AD078C01021B25
:101B6000130B2091AA073091AB07EB01C21BD30BDB
:101B7000011520EF12070CF46CC0C801905F892F8B
:101B8000992782958695877040E050EE849F90015A
:101B9000859F300D949F300D1124020F131FC11526
:101BA00060EFD6070CF457C0CE01905F892F9927BC
:101BB00082958695877020E030EE829FB001839FEA
:101BC000700D929F700D1124C60FD71F8091BF0713
:101BD0000E947C0D4C018091BF070E94620D1C0188
:101BE0008091BF070E947C0D9C01D8010E94D723E1
:101BF000472E582E692E772467FC7A948091BF0770
:101C00000E94620D9C01DE010E94D723672F782F6E
:101C1000892F992787FD9A957B01E418F508C7015C
:101C20008150914081159F41C0F080E0DF91CF91BC
:101C30001F910F91FF90EF90DF90CF90BF90AF90EA
:101C40009F908F907F906F905F904F903F902F90DC
:101C50000895105E8DCFD05EA2CF27010F2C000C0F
:101C6000660877089E01D4010E94D723872E982EFC
:101C7000A92EBB24A7FCBA949801D1010E94D723B6
:101C8000672F782F892F992787FD9A95680D791DE1
:101C9000072E000C880B990B982F872F762F66271D
:101CA000A30192010E947221C90137FF04C0882755
:101CB0009927821B930B813091400CF0B6CFA0E0A6
:101CC000B8E70E949121672F782F892F992787FDE8
:101CD0009A95C0E4C70FC7FDA8CF60E070E088E721
:101CE00090E0A30192010E947221365F303408F027
:101CF0009CCFF601C0833183F382E28281E096CFEC
:101D0000089590E080E00895FC0101900020E9F73B
:101D10003197AF01481B590BBC0181EC97E00C9443
:101D2000FD068F929F92AF92BF920F931F93CF9316
:101D3000DF93CDB7DEB7A1970FB6F894DEBF0FBE25
:101D4000CDBF19A2423008F44AE08E010F5D1F4F4B
:101D5000842E912CB12CA12CA50194010E94A421C8
:101D6000E62FB901CA01EA30F4F4E05DD801EE9340
:101D70008D01232B242B252B79F790E080E0109701
:101D800019F0CD010E94840EA1960FB6F894DEBF23
:101D90000FBECDBFDF91CF911F910F91BF90AF903C
:101DA0009F908F900895E95CE1CF0C945C210F9394
:101DB0001F93CF93DF93CDB7DEB728970FB6F89474
:101DC000DEBF0FBECDBF8C01FC016381F8E06F9FC9
:101DD000C0011124F80160817181680F791F48E00A
:101DE00050E0CE0101960E9453216B817C812F81AE
:101DF0004D8189819A810E940E0C80E80E944E0BD1
:101E0000882389F0F8018381882311F0815083832E
:101E100028960FB6F894DEBF0FBECDBFDF91CF91ED
:101E20001F910F91089580E10E944E0B882381F34A
:101E3000F801838122812150330B8217130644F766
:101E40008F5FE5CF1F920F920FB60F9211248F93E1
:101E50009F938091E1009091E100937F9093E10046
:101E600083FF0FC01092E90091E09093EB00109275
:101E7000EC0092E39093ED001092EE0298E09093C4
:101E8000F00082FF22C093E09093E9009091F2006D
:101E9000992319F09AE39093E8009091DF02992337
:101EA00041F09091DF0291509093DF02911101C0B7
:101EB0005D9A9091ED02992341F09091ED0291503D
:101EC0009093ED02911101C0289A84FF18C080916F
:101ED000E2008E7E81608093E2008091E1008F7E3F
:101EE0008093E1008091E0028E7E80618093E00229
:101EF0009F918F910F900FBE0F901F90189580FFAC
:101F0000F7CF8091E2008E7E80618093E200809125
:101F1000E1008E7E8093E1008091E0028E7E816000
:101F2000E5CF1F920F920FB60F921124CF92DF923E
:101F3000EF92FF920F931F932F933F934F935F93D3
:101F40006F937F938F939F93AF93BF93EF93FF9381
:101F5000CF93DF93CDB7DEB76C97DEBFCDBF1092C6
:101F6000E9008091E80083FF25C068E0CE01459636
:101F70000E94F00682EF8093E8008D8987FF39C0C8
:101F80009091E80090FFFCCF982F907609F034C133
:101F90009E894F89588D2F89F88C911131C08038D6
:101FA00061F58091DE028093F1001092F1008EEFD6
:101FB0008093E8006C960FB6F894DEBF0FBECDBFDD
:101FC000DF91CF91FF91EF91BF91AF919F918F9151
:101FD0007F916F915F914F913F912F911F910F9141
:101FE000FF90EF90DF90CF900F900FBE0F901F905B
:101FF00018959EEF9093E800C7CF1092F100D5CFCF
:10200000913059F48111D3CF4130510581F680913F
:10201000DE028D7F8093DE02CACF933049F48111B6
:10202000C6CF4130510519F68091DE028260F2CFB1
:10203000953041F48091E80080FFFCCF2068209328
:10204000E300B5CF963009F0A9C00B8D1C8D22E0BE
:102050001092E9001092DC021092DB02F2122EC004
:102060001092DA021092D9020E94BF061F8299E0F4
:102070009983FA8291E09E8390EA98879AEF9987F4
:102080002091DB023091DC02275F3F4F3C832B83A2
:102090008D831092E9001092DC021092DB02109303
:1020A000DA020093D90249E050E0BE016F5F7F4F32
:1020B00080E00E9499060E94BF0679CF1093DA0251
:1020C0000093D9020E94D605DC0112960D911C9155
:1020D0000115110509F451C1D801ED91FC9104805D
:1020E000F581E02DBE016B5E7F4FC8010995009719
:1020F00009F03EC1F80100851185EACFF3E0FF1237
:102100000EC08F89882309F440C0823061F440E812
:1021100060E18EEE98E00E940D12811148CF81E2BD
:102120008093EB0047CF813029F440E86BE082EEEA
:1021300098E0F1CF833099F70E94D605DC01129622
:10214000ED90FC908E010F5F1F4F6801E114F104C8
:1021500079F0D701ED91FC910680F781E02DB8016F
:10216000C7010995080F111DF701E084F184EECF36
:10217000D8011C92F60101900020E9F73197BF01C8
:102180006C197D0940E0C601C6CF6CEC78E0FB011C
:10219000449150E080E80E94990609CF973009F4F5
:1021A000BECF983021F481E08093F10000CF9930C8
:1021B00009F0FDCE837009F0B2CFEFE2F1E081E0EB
:1021C00031E096E32191222371F08093E90030936E
:1021D000EB00DF0111972C912093EC009093ED0020
:1021E0008F5F873079F78EE78093EA001092EA00DC
:1021F0008F898093EE02DBCE8B8D9C8D1092E9004F
:102200001092DC021092DB029093DA028093D902E2
:10221000898D811192C08E899D89913A49F48132CC
:1022200009F07DCF47E050E06CE171E080E0B3CF92
:10223000913209F074CF833269F48F89988DB0E0C0
:10224000A0E08093180190931901A0931A01B09314
:102250001B01ADCE803269F48091E80082FFFCCF93
:1022600067E08CE191E00E94F0068BEF8093E8003C
:102270009ECE823209F09BCE8F8980932301EEEFB0
:10228000FFE7859194918B3F9C4D51F1E0E0F8E0A0
:1022900080911C0190911D01A0911E01B0911F0120
:1022A000803B9440A105B105F1F48091230180FDAC
:1022B0001AC0EE3F8AE0F80789F587E797E7918330
:1022C0008083809160008093DD0288E19BE00FB6FF
:1022D000F894A895809360000FBE9093600067CE3D
:1022E000EEEFFAE0D5CF808191818737974709F0EB
:1022F0005ECEA89580916000886180936000809197
:10230000DD0280936000EE3F2AE0F20789F08091C1
:10231000FE0A9091FF0A9183808349CE808191814A
:102320008737980751F29093FF0A8093FE0AC5CF32
:102330001092FF0A1092FE0A3ACE0E94D605DC01E6
:1023400012960D911C910115110509F4E8CED801E2
:10235000ED91FC910190F081E02DBE016B5E7F4F0D
:10236000C8010995811123CEF80100851185EBCFB5
:10237000181619060CF41BCED2CEF1E0FF12BECE19
:1023800060ED78E004CF1F920F920FB60F921124E8
:102390002F933F938F939F93AF93BF938091B301FC
:1023A0009091B401A091B501B091B6013091AE0108
:1023B00023E0230F2D3758F50196A11DB11D209361
:1023C000AE018093B3019093B401A093B501B09393
:1023D000B6018091AF019091B001A091B101B0918F
:1023E000B2010196A11DB11D8093AF019093B00180
:1023F000A093B101B093B201BF91AF919F918F9122
:102400003F912F910F900FBE0F901F90189526E8C7
:10241000230F0296A11DB11DD2CFEF92FF920F9311
:102420001F93CF93DF93F82E192FE62E042F81E010
:10243000860F880F0E946B0683E00E946B06CF2DEB
:10244000D12FEC0EFD2EF11CCE15DF05B9F007FFE4
:1024500013C0FE0184910E946B06182F80E00E9439
:102460006B06812321968111EFCFDF91CF911F91D0
:102470000F91FF90EF9008958881EDCF81E0F5CF27
:102480001092F6061092F50688EE93E0A0E0B0E018
:102490008093F7069093F806A093F906B093FA0696
:1024A00089E391E09093F4068093F3068FEF9FEF1A
:1024B000909300078093FF061092CE071092CD07ED
:1024C00087E591E09093CC078093CB071092C407E7
:1024D0001092C3078BE491E09093C2078093C107E9
:1024E00087E08093CA0781E08093C9071092C607EE
:1024F0001092C7071092C5078093C8071092AB07C8
:102500001092AA071092AD071092AC071092AE0776
:102510001092AF071092B0071092B1071092B8074F
:102520001092B7071092BD071092BE071092BF0716
:102530008093C00710929E0710929F071092A007E9
:102540001092A1071092A7071092A6071092A90750
:10255000EAE7F7E029E130E011821082138212826B
:1025600084833683258317828087128613863C9660
:1025700097E0EE39F90781F7E3E4F7E083E390E0D1
:1025800011821082138212829583848317821086AF
:10259000128611863B9627E0EA37F20789F70895FD
:1025A000CF93DF93CDB7DEB7AF970FB6F894DEBF0A
:1025B0000FBECDBF789484B5826084BD84B5816040
:1025C00084BD85B5826085BD85B5816085BD8091FE
:1025D0006E00816080936E00109281008091810076
:1025E000826080938100809181008160809381006E
:1025F0008091800081608093800080919100826052
:1026000080939100809191008160809391008091EE
:1026100090008160809390008091C10084608093DD
:10262000C1008091C10082608093C1008091C1008F
:1026300081608093C1008091C30081608093C3005A
:102640008091C00082608093C0008091C200816050
:102650008093C20080917A00846080937A00809198
:102660007A00826080937A0080917A008160809302
:102670007A0080917A00806880937A001092EE024E
:102680001092DE021092E0028091D7008160809368
:10269000D70080EA8093D80089B5806189BD89B56B
:1026A000826089BD09B400FEFDCF61E070E080E08A
:1026B00090E00E94A3088091D8008F7C8061809375
:1026C000D8008091E000807F8093E0008091E1005D
:1026D0008E7E8093E1008DE08093E200559A209AEF
:1026E00081EC80937C0085B1806F85B984B1877E51
:1026F00084B984B1876E84B95E9A5F988AB1806D1F
:102700008AB9769A6E9881B3806F81BB899880B3BD
:102710008D7080BB80E58CBD81E08DBD85E090E053
:102720000E94410B5F9A85E090E00E94410B5E9809
:102730005C98EEE5F8E08BE698E024912EBD000071
:102740000DB407FEFDCF31968E179F07B1F75C9A47
:1027500081E88093640080916500816080936500CA
:1027600080E00E948C0580E80E94590B8823A9F024
:102770005C9885EA8EBD00000DB407FEFDCF5C9A23
:102780002E982F982D988091640080628093640029
:1027900081E083BF889513BEFCCF84E00E94590B73
:1027A000882309F448C02D9884E80E94590B882397
:1027B000E1F00E943F0B88EC90E00E94410B2F98C3
:1027C00082E090E00E945C218F3F29F06FEF82E071
:1027D00090E00E94642184EF91E00E94410B2F9AC7
:1027E00084E80E94590B8111FBCF84E10E94590BB0
:1027F0008823E1F00E943F0B88EC90E00E94410B9F
:102800002E9882E090E00E945C21882329F060E00D
:1028100082E090E00E94642184EF91E00E94410BED
:102820002E9A84E10E94590B8111FBCF88EC90E035
:102830000E94410BB2CF0E943F0B82E090E00E94C9
:10284000D50E882309F4AEC03E9A3F9A81E090E00D
:102850000E94D50E81FF14C0282F247029A382FD69
:102860002E9801EF1FEFA8E08A2E912C80E40E94A1
:10287000590B882309F499C02E9A2F9A0E943F0B76
:1028800082E390E00E94410B0E94460B8111F8CF39
:1028900081E2809300015E9AE4E1F0E080EC9EEF3B
:1028A000BC0125913591559145912851354909F43F
:1028B000CA018093F1029093F202259135915591CE
:1028C00045912851354909F4BA016093EF0270939C
:1028D000F0028BEA0E9476080E945C0542ED51E00E
:1028E00090E080E0FA0130E020E091838083338340
:1028F000228334963C5F211560E23607B1F7405ED3
:102900005F4F9C5F811570E2970761F70EE917E052
:102910008AE797E098A38F8F50E2C52ED12CE12C47
:10292000F12CAF8DB8A114961C920E94FB20A70138
:1029300096010E947221982F872F762F6627EF8DA0
:10294000F8A1718360830E94FB20A70196010E9479
:102950007221982F872F762F6627AF8DB8A11396F7
:102960007C936E9312971C96B8A3AF8F0A171B0720
:10297000C1F68FB7F8944091B3015091B4016091C2
:10298000B5017091B6018FBF8091B701882309F41A
:10299000D7C01092B70180E090E0892B51F30E94DC
:1029A0000000E7CF3E983F9851CF59A0552029F01D
:1029B0000430110511F42E9A2F9881E00E948C05A5
:1029C000980117FF04C022273327201B310B2770E3
:1029D0003327C80117FD0796F3E095958795FA957B
:1029E000E1F717FF05C00197A401421B530B9A01A1
:1029F000BC017695762F6627779567956D507D4F4C
:102A0000D12CC12CD401A21BB30BB8A3AF8F8E3F26
:102A1000BFEF9B0709F43FC0DB0150E040E0F60147
:102A2000E255F84F3F017B01F0E8EF0EF11C8F3FBC
:102A3000980781F0F301E40FF51FE491022E01C025
:102A4000EE0F0A94EAF75496FC915497EF2B5496A4
:102A5000EC93549721153105C1F0F301E40FF51FF4
:102A600054905701A40EB51EE52DF0E00F8C02C066
:102A7000F595E7950A94E2F7FA8FE98FF501F48965
:102A8000FB8F598C5F2AF501548A4F5F5F4F119677
:102A90004835510561F60196F8E5CF0ED11C605816
:102AA0007F4F40EBC416D10409F0B1CF80E00E9403
:102AB0008C058FE090E00E94410B0F5F1F4F0931A2
:102AC000110509F0D3CE59A0552011F02F9A2D9859
:102AD00080E991E00E94410B0E943F0B81E090E071
:102AE0000E94D50E80FFCCCE8AE090E00E94D50EE9
:102AF0009FEF980F9E3F08F0C3CE22E330E0309363
:102B0000CF012093CE0128E330E03093D101209310
:102B1000D0010BE010E0682F8BEC97E00E94820B55
:102B2000C8010E94D50E0F5F1F4F0131110599F7A3
:102B300080E00E948C0588EE93E00E94410BA0CEBD
:102B40009091B801B42FB91B9B2F20910001B217AF
:102B500048F49F5F921708F01ECF81E083BF8895ED
:102B600013BE19CF91E09093B7014093B801209123
:102B7000B9013091BA012F5F3F4F3093BA012093D2
:102B8000B901E3EFF2E081118FEF0024819381938B
:102B9000819381930394D1F71092D1011092D001C7
:102BA0001092CF011092CE018091CD018093CC0183
:102BB0000E94460B8093CD01E091D802EB3008F0E3
:102BC0004CC1F0E0EA51FA4E0C94D123F1150D16E8
:102BD000C2162B17C716E51605173317E917101875
:102BE000011A00E02BE130E040E070E060E090E0AE
:102BF00080E00E94410788E00E944E0B882319F074
:102C000081E08093D80284E00E944E0B882309F46F
:102C100024C183E08093D80220C185E18093AE0770
:102C200080E29EE4A0E08093AF079093B007A0936A
:102C3000B10781E08093B20786E0E8E2F1E0A4EB1F
:102C4000B7E001900D928A95E1F71092B30784E600
:102C50008093BD079DEB892E91E0992E2CECE22EFE
:102C600021E0F22E8E01055F1F4F7724739480912F
:102C7000AE078A30D0F40E94FB2022E030E040E032
:102C800050E00E947221AB01BC014F5F5F4F6F4F5C
:102C90007F4F49A7F801CF01801B910B841795073F
:102CA0000CF04CC012823196F6CF96EF980F9A3006
:102CB000C8F40E94FB2022E030E040E050E00E9497
:102CC0007221AB01BC014E5F5F4F6F4F7F4F49A731
:102CD000F801CF01801B910B841795077CF51282B8
:102CE0003196F7CF84518A3048F50E94FB2023E0CB
:102CF00030E040E050E00E9472216F5F69A76801F8
:102D0000A62EB12CC601801B910B8A159B05B4F42D
:102D10000E94FB2022E030E040E050E00E9472215F
:102D2000672B682B692B31F4F6017282BFEFCB1A47
:102D3000DB0AE8CFD60112961C92F8CF59A45B8625
:102D400085E0F801DE01119601900D928A95E1F778
:102D500085E0FE013196DE01169601900D928A956E
:102D6000E1F785E0FE013696D40101900D928A9537
:102D7000E1F725E0820E911CE814F90409F077CF01
:102D800085E048CF0E94340D0E94EC04F9CF85E025
:102D90008093C6078093C5078093C7078FE591E0AE
:102DA0000E94840E8091AE07811109C084E00E94C8
:102DB0004E0B882309F451C01092D8024EC084E013
:102DC0000E944E0B8111DCCF48C000E02FE138E0BB
:102DD00040E070E060E090E080E00E94410783E125
:102DE00091E00E94D70E88E00E944E0B8823A9F143
:102DF00080911601813039F020F0823071F588E041
:102E000009CF86E007CF87E005CF85E08093D70222
:102E100000E023E230E140E070E060E090E080E03C
:102E20000E9441078FE091E00E94D70E84E00E944B
:102E30004E0B882321F08091D7028093D80288E03E
:102E40000E944E0B882349F080911201882309F4D7
:102E500099CF813011F40E94070D5E9881E00E94A5
:102E60008C055E9A98CD15E01093D70200E027E21A
:102E700038E140E070E060E090E080E00E944107CF
:102E80008BE091E00E94D70E86E28093C607809384
:102E9000C5078AE08093C70780E898E00E94D20CBB
:102EA000E091BC011E9FF0011124E354FE4F6081AC
:102EB00070E090E080E04AE00E94910E10E000E0B7
:102EC00085E0C82ED090BC01ED2CF12CCE9CF001F9
:102ED000CF9CF00D1124E354FE4F80818017110622
:102EE00099F094F0E00FF11F8281882329F081305E
:102EF00041F00F5F1F4FE6CF87E798E00E94D20CAA
:102F0000F8CF8BE698E0FACF84E00E944E0B88233E
:102F100021F08091D7028093D80288E00E944E0B66
:102F2000882309F49ACF80910E01813009F444C0BE
:102F300048F0823009F091CF31E03D1508F446C0E9
:102F4000D3943DC085E08E9DF0018F9DF00D11243E
:102F5000E354FE4FA2EDB2E001900D928A95E1F7A5
:102F60009091D2029093D302A2EDB2E0EAE7F7E0AB
:102F700080E061E029E130E012E043E350E08917AE
:102F800088F4148212967C91129771877185772349
:102F900059F0713069F08F5F3C961196833079F764
:102FA0008AE038CE6483F2CF608736832583F3CFFF
:102FB000108756834583EFCFDD2021F0DA94D0923D
:102FC000BC014BCF82E08093BC0147CF1092BC0183
:102FD00044CF85E08093D70200E02BE230E240E06E
:102FE00070E060E090E080E00E94410787E091E0BF
:102FF0000E94D70E84E00E944E0B882321F080911E
:10300000D7028093D80288E00E944E0B882309F4EF
:1030100024CF80910A01813009F01FCF89E0FACDD9
:1030200018E01093D70200E02FE238E240E070E0B1
:1030300060E090E080E00E94410702E00093C60754
:103040000093C50781E08093C7078CE691E00E945A
:10305000840E6091B60770E090E080E04AE00E9444
:10306000910E0093C6070093C5071093C70787E723
:1030700091E00E94840E6091B40770E090E080E0DF
:103080004AE00E94910E0093C6070093C5078FE0A7
:103090008093C70782E891E00E94840E6091B50793
:1030A00070E090E080E04AE00E94910E0093C60735
:1030B0000093C50786E18093C7078DE891E00E94E1
:1030C000840E6091B7077091B807072E000C880B2B
:1030D000990B0E94782220E030E040E85BE30E94F8
:1030E0002D236B017C014B015C01AC019B010E9413
:1030F0009A23882309F43EC088E991E00E94840E57
:1031000082E08093C6078093C50784E28093C70757
:1031100084EA91E00E94840E8091AF079091B007FD
:10312000A091B107BC018A2F90E04AE00E94910E65
:103130008091BB01811104C083E091E00E94D70E11
:1031400084E00E944E0B882339F08091BB018823D4
:1031500009F4ABC01092BB0188E00E944E0B909125
:10316000BB01882309F4A6C09111A7C081E0809318
:10317000BB0173CEB701A6017F774B8F5C8F6D8F3C
:103180007E8F2FEF3FEF4FE75FE76B8D7C8D8D8D4F
:103190009E8D0E949A2381110FC02FEF3FEF4FE7C2
:1031A0005FE76B8D7C8D8D8D9E8D0E94422218165F
:1031B0001CF48CE991E0A2CF2FEF3FEF4FE75FE4E3
:1031C000C701B6010E94282318161CF480EA91E07A
:1031D00095CF2FEF3FEF4FE75FECC701B6010E949D
:1031E000422287FDF3CF20E030E0A901C701B601FC
:1031F0000E94422287FF0BC06DE281EC97E00E94A3
:103200003E0C46015701B7FAB094B7F8B0942AE0E3
:1032100037ED43EA5BE3C501B4010E94D6214B01BF
:103220005C010E9447226B017C010E9476229B0177
:10323000AC01C501B4010E94D5214B015C014AE0FB
:10324000C701B6010E94910E6EE281EC97E00E94E8
:103250003E0C20E030E040E251E4C501B4010E94A0
:103260002D234B015C010E9447226B01F12CE12CC4
:103270004AE0C701B6010E94910EC701B6010E9443
:1032800076229B01AC01C501B4010E94D52120E04A
:1032900030E040E251E40E942D230E94472290E05A
:1032A00080E04AE00E94910E2BCF8091D70280935C
:1032B000D80252CF992309F4D0CD809106018823FA
:1032C00041F1823009F0C9CD80E40E944E0B882381
:1032D00029F08091B507843608F483C080E20E940B
:1032E0004E0B882309F4B9CD8091B507823008F4DC
:1032F000B4CD00E023E330E340E060E270E088E436
:1033000090E00E9441078091B50781508093B507F6
:1033100023C080E40E944E0B882321F08091B607E1
:10332000883790F180E20E944E0B882309F495CDF6
:103330008091B607823008F490CD00E023E330E3BB
:1033400040E061E070E088E490E00E9441078091F5
:10335000B60781508093B6078091B407815080935F
:10336000B4078091B7079091B80702969093B80779
:103370008093B7078091AF079091B007A091B107F4
:103380008C599F4FAF4F26C000E023E530E340E06B
:1033900061E070E080E790E00E9441078091B6070D
:1033A0008F5F8093B6078091B4078F5F8093B407D7
:1033B0008091B7079091B80702979093B8078093D0
:1033C000B7078091AF079091B007A091B1078456DD
:1033D0009109A1098093AF079093B007A093B1071B
:1033E0003CCD00E023E530E340E060E270E080E7C0
:1033F00090E00E9441078091B5078F5F8093B507E9
:10340000D2CF88E00E944E0B882359F084E00E94BE
:103410004E0B882331F08091170191E0892780932A
:10342000170184E00E94590B882301F1E3E4F7E0DF
:1034300090E080E027812111B1C02BE0289FF001AE
:10344000299FF00D1124ED5BF84F81E08783809177
:10345000AA079091AB07918380838091AC079091EC
:10346000AD07938382838091BE07868380E20E94AA
:10347000590B882361F02091B9079091BE07921BE8
:103480009093BE078091BF07820F8093BF0780E4AF
:103490000E94590B882361F09091B9078091BE0773
:1034A000890F8093BE078091BF07891B8093BF0758
:1034B00080E80E94590B882309F477C080E80E94B5
:1034C000590B1FEF811111E08091BE070E94620D20
:1034D000AC01812F110F990B182F00E0A091B707B5
:1034E000B091B80798010E94D723672F782F892FB2
:1034F000992787FD9A959A01DB010E94D723BB2764
:1035000097FDBA95A92F982F872F2091AA07309160
:10351000AB07820F931F9093AB078093AA0780910C
:10352000BE070E947C0DAC01A091B707B091B8070F
:1035300098010E94D723672F782F892F992787FD1D
:103540009A959A01DB010E94D723BB2797FDBA9574
:10355000A92F982F872F2091AC073091AD07820FAC
:10356000931F9093AD078093AC0760E070E2809169
:10357000AA079091AB070E94E2049093AB07809357
:10358000AA0760E070E28091AC079091AD070E94BD
:10359000E2049093AD078093AC070CC001963B9674
:1035A0008530910509F046CF61CF80E10E94590B2B
:1035B000811184CF8091D302811103C085E0809373
:1035C000D80210E000E01B861C861E861D86F801CE
:1035D000EE0FFF1FEE0FFF1FEE52FE4F6081718155
:1035E00082819381AE01455F5F4F0E94970D8823D2
:1035F00039F06C8570E08B8541E090E00E94640BAF
:103600000F5F1F4F00341105F1F6B12C8091D202EB
:10361000B81608F0BEC1CB2CD12C8CE08C9DF001EB
:103620008D9DF00D1124E658F84F9481913009F4E6
:103630008DC0B09202011B861C861E861D86EB2C57
:103640000B2C000CFF088E9DF0018F9DF00D1124B6
:10365000E658F84F6081718182819381AE01455FA8
:103660005F4F0E94970D882309F470C052E05B15EC
:10367000A8F16D857E8560587109072E000C880BB6
:10368000990B982F872F762F662720E83FE040E0A0
:1036900050E00E947221A0E0B1E0A21BB30BB7FF83
:1036A00002C0B0E0A0E08CE08E9DF0018F9DF00D97
:1036B0001124E658F84FA13061E0B60714F0A0E0FD
:1036C000B1E020E036E70E94DF23672F782F892FB3
:1036D000992787FD9A9582E0870F87838CE08E9DDE
:1036E00080018F9D100D11240658184FD801149693
:1036F0009C9114979111E6C017964C91CC84D12CD3
:10370000842F869590E0EB84F12CB601681B790B31
:10371000242FF701E81BF90BCF010E940E0CD801F2
:1037200019968C911997882399F0813099F1888D99
:10373000869590E0B601681B790B00E0442D91015D
:10374000D701A81BB90BCD010E944107B3945ECFEE
:10375000F8018781883008F43FC08F3008F444C0F6
:10376000843108F449C08E3108F44EC0883208F420
:1037700053C08C3308F458C0803508F45DC08436DB
:1037800008F062C0FAE5F88F23E3222E25E5322EF9
:10379000412CCDCF17968C91883008F45DC08F30C6
:1037A00008F45DC0843108F45DC08E3108F462C055
:1037B000883208F467C08C3308F46CC0803508F494
:1037C00071C0843608F076C0BAE5B88F9FE7292E1D
:1037D0009DE7392E412CABCFE2E0E88FEFE72E2EAC
:1037E000E8E43E2E412CA3CFF6E0F88F77E8272EB1
:1037F00078E4372E412C9BCF28E0288F87E9282EAC
:1038000088E4382E412C93CF30E1388F0BEB202EFB
:1038100008E4302E412C8BCF4EE1488F1FE1212E42
:1038200019E4312E412C83CF52E3588FBBE82B2E65
:10383000BAE43B2E412C7BCF66E4688FA3E12A2EAD
:10384000AEE43A2E412C73CF7EE6788FF7E72F2E29
:10385000F0E63F2E412C6BCF82E0888FBFCF96E001
:10386000988FC4CFA8E0A88F6BEA262E61E7362E8A
:10387000412C5DCFB0E1B88F5FEC252E51E7352E9E
:10388000412C55CFEEE1E88F43E3242E42E7342E5E
:10389000412C4DCFF2E3F88F33E6232E33E7332E5E
:1038A000412C45CF26E4288F2BEE222E26E7322E00
:1038B000412C3DCF3EE6388F93EC292E98E8392EE7
:1038C000412C35CF8C9DF0018D9DF00D1124E658D3
:1038D000F84F8481823009F039CFCC84DB84F80141
:1038E0008781E7E12BE139E940E0873180F0EEE2C2
:1038F00025EE3CE940E08E3250F0ECE521E03CEA78
:1039000040E08C3520F0EEE625E638EE40E0809190
:10391000B9019091BA016AE070E00E94A923892B55
:1039200019F58CE08E9DD0018F9DB00D1124A65805
:10393000B84F1A968C911A971B969C911B979817C3
:1039400040F49091D30291509093D30291E0149659
:103950009C939CE09E9DD0019F9DB00D1124A65884
:10396000B84F8F5F1A968C93E695F0E08CE08E9DB1
:10397000D0018F9DB00D1124A658B84F6C2D70E06A
:103980006E1B7F0B8D2D90E01A960C918E1B9F0B5A
:10399000DBCE23E437E03C8F2B8F8901D12CC12C67
:1039A0008BE0B82ED80117968C911797882309F4CD
:1039B0005DC016968C910E94620DF801A481B581BC
:1039C0009C010E94D723BB2797FDBA95A92F982F5A
:1039D000872F20813181820F931F9183808386817D
:1039E0000E947C0DF801A481B5819C010E94D7231F
:1039F000BB2797FDBA95A92F982F872F2281338156
:103A0000820F931F93838283BC9CC001BD9C900D49
:103A100011249C012D5B384F790160E070E2D901DF
:103A20008D919C910E94E204F7019183808360E074
:103A300070E2828193810E94E204D70113969C93E5
:103A40008E931297F8018185928524813581820FAA
:103A5000931F9287818781159A4044F0D801179669
:103A60001C9217971A961C921E921997BFEFCB1AA9
:103A7000DB0A055F1F4FE5E0CE16D10409F092CFB7
:103A800063E4E62E67E0F62E72E0D72ED701179694
:103A90008C91882309F48BC00AE717E0F801848130
:103AA000813009F47CC0D7018D919C9111972081C0
:103AB0003181821B930B9F8B8E8B12968D919C91E3
:103AC00022813381821B930B9D8B8C8B092E000CE2
:103AD000AA0BBB0BBA2FA92F982F88278B879C87FF
:103AE000AD87BE87BE016C5E7F4FCE010B960E94F4
:103AF000ED0C4B015C018E899F89092E000CAA0BED
:103B0000BB0BBA2FA92F982F8827888B998BAA8B4C
:103B1000BB8BBE016A5E7F4FCE0140960E94ED0CCA
:103B2000860E971EA81EB91EF80187818695869578
:103B30008695D70118969C91890F9927991F982FE0
:103B40008827998B888B092E000CAA0BBB0BBA2FE8
:103B5000A92F982F88278B879C87AD87BE87BE01AA
:103B6000605F7F4FCE010B960E94ED0C68157905C2
:103B70008A059B05A4F0F7011782D80118968C914D
:103B80001897811107C014969C911497923011F0E8
:103B90001496DC929091C007891BF8018087045F1E
:103BA0001F4F2F8D38A10217130709F077CF3BE085
:103BB000E30EF11C4AE7E41647E0F40609F066CF8D
:103BC000D12CC12CAB8DBC8D17968C91882309F418
:103BD000BCC0C09201011B861C861E861D86BBE0F0
:103BE000BC9DF001BD9DF00D1124ED5BF84F60818F
:103BF000718182819381AE01455F5F4F0E94970D75
:103C0000882309F4A2C01C85EB846D857E856058ED
:103C10007109072E000C880B990B982F872F762F90
:103C2000662720E83FE040E050E00E94722180E0FB
:103C300091E0821B930B97FF02C090E080E08130FF
:103C4000E1E09E0714F080E091E0880F991F880F53
:103C5000991F41E0490FAB8DBC8D18964C93E12F15
:103C6000F0E0FAA3E9A3F12C042F10E0440F4F5F1A
:103C7000BF01601B710B21E0C7010E94E50B6624A8
:103C80006394712C601A710A88279927801B910B05
:103C90009C01220F331F3CA32BA3AA24A394B12C75
:103CA000912C812CFEA2EDA249A15AA15BA74AA7A3
:103CB00077FC0AC0015011096BA17CA16E5F7F4F98
:103CC0007CA36BA3660E771E7FEF871A970A82E0AC
:103CD000A80EB11C6A0C7B1C802F880F55245394AE
:103CE000580E21E0452DA9A1BAA1A01BB10BBA8F96
:103CF000A98FBD018DA19EA1880D991D0E94E50B84
:103D0000EAA5FBA5E819F909F8A7EFA321E04A2DD8
:103D1000BF01C701800F911F0E94E50B21E0452DD7
:103D2000698D7A8D8DA19EA1881999090E94E50B54
:103D300021E04A2D6FA178A5C701801B910B0E943D
:103D4000E50B801691060CF4B3CFFFEFCF1ADF0A14
:103D50002B8D3C8D255F3F4F3C8F2B8F35E0C3165D
:103D6000D10409F02FCF8FEF8093010100E027E706
:103D700038E340E070E060E090E080E00E944107BE
:103D800080911701882309F468C810E000E020E062
:103D900040E270E060E0C8010E94E50B0F5F1F4F3A
:103DA00000321105A1F710E000E0F12CE12C41E018
:103DB000B701C8010E94640B44E0E40EF11C50E21C
:103DC000E516F104A1F70C5F1F4F0032110569F7EA
:103DD0008091BE070E94620D092E000CAA0BBB0B3E
:103DE000880F991FAA1FBB1F0091AA071091AB074C
:103DF000080F191F012F110F110B8091BE070E9490
:103E00007C0D092E000CAA0BBB0B880F991FAA1F53
:103E1000BB1F8090AC079090AD07880E991E892C2F
:103E2000990C99088091BE0780560E94620D092E58
:103E3000000CAA0BBB0B880F991FAA1FBB1FE09099
:103E4000AA07F090AB07E80EF91EEF2CFF0CFF0855
:103E50008091BE0780560E947C0D092E000CAA0B93
:103E6000BB0B880F991FAA1FBB1FC090AC07D09037
:103E7000AD07C80ED91ECD2CDD0CDD088091BE0724
:103E8000805A0E94620D092E000CAA0BBB0B880FF2
:103E9000991FAA1FBB1F6090AA077090AB07680EFE
:103EA000791E672C770C77088091BE07805A0E9494
:103EB0007C0D092E000CAA0BBB0B880F991FAA1FA3
:103EC000BB1FA090AC07B090AD07A80EB91EAB2CDD
:103ED000BB0CBB08C814D9040CF01DC1A814B9044C
:103EE0000CF42EC18C149D0454F0982D892D46019C
:103EF000C92ED82E902F812F8701E92EF82EA814D5
:103F0000B90409F040C0E016F10654F0902F812F5B
:103F10000E151F0514F49E2D8F2D7801092F182FD3
:103F20006E147F042CF0061517050CF4830137017D
:103F300060E48616910438F441E0400F4619B4015C
:103F4000C3010E94AB0410E00CE08091D20218176C
:103F500010F00C942D17019FF0011124E658F84F32
:103F6000848181110EC0628173817A9580819181F3
:103F70009A9523E043E0672F70E0892F90E00E943C
:103F80000E0C1F5FE2CF962D872D3801092F182FB9
:103F90009A2D8B2D5401892E982EC70186199709C9
:103FA0009BA78AA7D601AA19BB09BDA7ACA7F80190
:103FB000E619F709FC8FEB8F94012A193B093CA302
:103FC0002BA3A8014E195F095EA34DA3B4016C1980
:103FD0007D097FA76EA7C814D90409F44CC0C60197
:103FE000019798A78FA385011AA219A21A8E198E7C
:103FF000AFA1B8A5A017B1070CF440C0898D9A8D68
:104000006CA57DA50E94BD239B01260D371D89A1AE
:104010009AA16BA17CA10E94BD23CB01860D971DA7
:10402000E98DFA8D4AA55BA5E40FF51FFA8FE98F9C
:1040300069A17AA1AB8DBC8D6A0F7B1F7AA369A39E
:10404000821793071CF0582FC901252F0034110542
:1040500030F441E0420F481BB8010E94AB040F5FEF
:104060001F4FC6CF9E2D8F2D7801092F182F982D09
:10407000892D460171C0D8A6CFA2B5CFC8018C1931
:104080009D092DA13EA1829FF001839FF00D929F7B
:10409000F00D1124FA8FE98FC8018A199B094B8D05
:1040A0005C8D849F6001859FD00C949FD00C11245F
:1040B000801691060CF447CF898D9A8D6EA57FA549
:1040C0000E94BD239B012E0D3F1DC6016BA17CA14B
:1040D0000E94BD23CB01860D971D698D7A8DADA100
:1040E000BEA16A0F7B1F7A8F698FEB8DFC8DCE0E80
:1040F000DF1E821793071CF0582FC901252F0034AB
:10410000110530F441E0420F481BB8010E94AB0496
:104110000F5F1F4FCDCFAC14BD040CF0F0CEA81430
:10412000B9040CF49FCF962D872D37017801092F04
:10413000182F9C2D8D2D64014501A92EB82ED5CEAA
:10414000AC14BD040CF429CF962D872D3701E92E30
:10415000F82E9A2D8B2D5601C92ED82E1ECF8F9258
:104160009F92AF92BF92CF92DF92EF92FF92CF9346
:10417000DF93EC01688179818A819B8161157105EA
:104180008105910521F464E279ED8BE597E02DE15D
:1041900033EF41E050E00E94722149015A019B0136
:1041A000AC01A7EAB1E40E9491216B017C01ACEE65
:1041B000B4EFA50194010E949F21C60ED71EE81EF0
:1041C000F91EF7FE06C081E0C81AD108E10880E8B0
:1041D000F80AC882D982EA82FB82C701B6019F77BA
:1041E000DF91CF91FF90EF90DF90CF90BF90AF9095
:1041F0009F908F9008958F929F92AF92BF92CF928F
:10420000DF92EF92FF9260912401709125018091DD
:10421000260190912701611571058105910521F411
:1042200064E279ED8BE597E02DE133EF41E050E07A
:104230000E94722149015A019B01AC01A7EAB1E435
:104240000E9491216B017C01ACEEB4EFA5019401B9
:104250000E949F21C60ED71EE81EF91EF7FE06C05B
:1042600081E0C81AD108E10880E8F80AC092240168
:10427000D0922501E0922601F0922701C701B601F4
:104280009F77FF90EF90DF90CF90BF90AF909F907F
:104290008F900895609324017093250180932601E7
:1042A000909327010895FB01DC0102C005900D9257
:1042B00041505040D8F70895F999FECF92BD81BD85
:1042C000F89A992780B50895262FF999FECF1FBA3D
:1042D00092BD81BD20BD0FB6F894FA9AF99A0FBE2F
:1042E00001960895052E97FB1EF400940E948921E3
:1042F00057FD07D00E94A42107FC03D04EF40C9474
:10430000892150954095309521953F4F4F4F5F4FF4
:10431000089590958095709561957F4F8F4F9F4F31
:1043200008950E94C621A59F900DB49F900DA49F53
:10433000800D911D11240895B7FF0C9491210E94C6
:104340009121821B930B0895A1E21A2EAA1BBB1B7D
:10435000FD010DC0AA1FBB1FEE1FFF1FA217B30751
:10436000E407F50720F0A21BB30BE40BF50B661F67
:10437000771F881F991F1A9469F76095709580952B
:1043800090959B01AC01BD01CF010895A29FB001A2
:10439000B39FC001A39F700D811D1124911DB29F79
:1043A000700D811D1124911D08955058BB27AA2717
:1043B0000E94ED210C94EE220E94E02238F00E942F
:1043C000E72220F039F49F3F19F426F40C94DD2203
:1043D0000EF4E095E7FB0C94D722E92F0E94FF2210
:1043E00058F3BA17620773078407950720F079F42A
:1043F000A6F50C9421230EF4E0950B2EBA2FA02DD8
:104400000B01B90190010C01CA01A0011124FF2781
:10441000591B99F0593F50F4503E68F11A16F0407C
:10442000A22F232F342F4427585FF3CF469537957B
:104430002795A795F0405395C9F77EF41F16BA0B40
:10444000620B730B840BBAF09150A1F0FF0FBB1FEE
:10445000661F771F881FC2F70EC0BA0F621F731F37
:10446000841F48F4879577956795B795F7959E3F94
:1044700008F0B0CF9395880F08F09927EE0F979525
:10448000879508950E94B32208F481E008950E9460
:10449000072388F09F5798F0B92F9927B751B0F0AC
:1044A000E1F0660F771F881F991F1AF0BA95C9F7B8
:1044B00014C0B13091F00E942123B1E008950C9412
:1044C0002123672F782F8827B85F39F0B93FCCF3C5
:1044D000869577956795B395D9F73EF49095809535
:1044E000709561957F4F8F4F9F4F0895E89409C055
:1044F00097FB3EF490958095709561957F4F8F4F17
:104500009F4F9923A9F0F92F96E9BB279395F6952C
:10451000879577956795B795F111F8CFFAF4BB0FAA
:1045200011F460FF1BC06F5F7F4F8F4F9F4F16C00E
:10453000882311F096E911C0772321F09EE8872F98
:10454000762F05C0662371F096E8862F70E060E054
:104550002AF09A95660F771F881FDAF7880F9695CD
:10456000879597F90895990F0008550FAA0BE0E871
:10457000FEEF16161706E807F907C0F01216130625
:10458000E407F50798F0621B730B840B950B39F465
:104590000A2661F0232B242B252B21F408950A26CB
:1045A00009F4A140A6958FEF811D811D089597F90B
:1045B0009F6780E870E060E008959FEF80EC0895C9
:1045C00000240A94161617061806090608950024F2
:1045D0000A9412161306140605060895092E03946C
:1045E000000C11F4882352F0BB0F40F4BF2B11F4E0
:1045F00060FF04C06F5F7F4F8F4F9F4F089557FD3F
:104600009058440F551F59F05F3F71F04795880F40
:1046100097FB991F61F09F3F79F0879508951216D7
:1046200013061406551FF2CF4695F1DF08C0161683
:1046300017061806991FF1CF869571056105089434
:104640000895E894BB2766277727CB0197F908954B
:104650000E94B32208F48FEF08950E9440230C9427
:10466000EE220E94E02238F00E94E72220F09523FB
:1046700011F00C94D7220C94DD2211240C942223E7
:104680000E94FF2270F3959FC1F3950F50E0551FD4
:10469000629FF001729FBB27F00DB11D639FAA2797
:1046A000F00DB11DAA1F649F6627B00DA11D661FE6
:1046B000829F2227B00DA11D621F739FB00DA11D07
:1046C000621F839FA00D611D221F749F3327A00DC1
:1046D000611D231F849F600D211D822F762F6A2F5D
:1046E00011249F5750409AF0F1F088234AF0EE0FC2
:1046F000FF1FBB1F661F771F881F91505040A9F7EF
:104700009E3F510580F00C94D7220C9422235F3FEA
:10471000E4F3983ED4F3869577956795B795F7952A
:10472000E7959F5FC1F7FE2B880F911D96958795A2
:1047300097F908950E94B322880B990B0895DB0125
:10474000582F0E94C621529F800DA49F800D1124D6
:104750000895AA1BBB1B51E107C0AA1FBB1FA617C8
:10476000B70710F0A61BB70B881F991F5A95A9F71A
:1047700080959095BC01CD01089597FB072E16F406
:10478000009407D077FD09D00E94A92307FC05D02B
:104790003EF4909581959F4F0895709561957F4F58
:1047A0000895EE0FFF1F0590F491E02D09940E94EB
:1047B000C621332312F48A1B9B0B0C94E1230E9425
:1047C000C621B7FF0895821B930B089597FB57FFEF
:1047D0000C94F6239F938F930E94F6236E1B7F0BFE
:1047E000AF91BF918A0B9B0B0895E894DF93CF9311
:1047F000FC01DB010E94C6217F936F93E9019A01BE
:10480000AC01BF93AF933F932F93DF010E94C6216A
:1048100026F46C1B7D0B820B930B9E01EB01FC01BC
:104820000E943D24AF91BF912F913F910E943D2462
:10483000BE01CF01F9012F913F91CF91DF910895F2
:1048400097FD1094002E083098F00850232F342F35
:10485000452F562F672F782F892F912DF4CF159440
:1048600097958795779567955795479537952795A8
:104870000A95AAF71124002D08950E94C621460F1B
:10488000571FC81FD91F08F431960895F894FFCF19
:1048900010FFFFAC000400CC000400EC0003000497
:1048A0000102001401030001FFFFFFFF00E100000F
:1048B000000000000100000073027333000200C119
:1048C000808100000000000000EA05D6080B060009
:1048D0000651060F062D06000000003E0CFD068165
:1048E0000E800E00000000820BFD06810E800E4E31
:1048F0006F207361766520646174610041726D6F31
:1049000072202020202000576569676874202020CD
:1049100020004865617473696E6B2020004D6F76CE
:1049200065537065656420006E616E00696E660097
:0E4930006F7666004372656469747320200020
:00000001FF
