:100000000C94A3040C94CB040C94CB040C94CB045C
:100010000C94CB040C94CB040C94CB040C94CB0424
:100020000C94CB040C94CB040C943A1A0C94A91A9B
:100030000C94CB040C94CB040C94CB040C94CB0404
:100040000C94CB040C94CB040C94CB040C94CB04F4
:100050000C94CB040C94CB040C94CB040C94DB1CBC
:100060000C94CB040C94CB040C94CB040C94CB04D4
:100070000C94CB040C94CB040C94CB040C94CB04C4
:100080000C94CB040C94CB040C94CB040C94CB04B4
:100090000C94CB040C94CB040C94CB040C94CB04A4
:1000A0000C94CB040C94CB040C94CB0400000600FD
:1000B0000C00120019001F0025002B003100380031
:1000C0003E0044004A00500056005C00610067009A
:1000D0006D00730078007E00830088008E0093001E
:1000E00098009D00A200A700AB00B000B500B900C9
:1000F000BD00C100C500C900CD00D100D400D800AA
:10010000DB00DE00E100E400E700EA00EC00EE00C6
:10011000F100F300F400F600F800F900FB00FC0029
:10012000FD00FE00FE00FF00FF00FF00389B0117EE
:100130001706029F012E2E061EAE015C5C0682EAA7
:10014000016E6E06172E5C6EF0F89C8E8783878E8C
:100150009CF8F00000FEFF0303030303070EFCF806
:100160000000FEFF0303030303070EFCF80000FF7B
:10017000FF00000000000000FFFF0000FEFF83837F
:10018000838383C7EE7C380000F8FC0E070303036B
:10019000070EFCF800003F7FE0C08080C0E07F3F9A
:1001A000FFFF01010101010101FFFF0000FFFF0C42
:1001B0000C0C0C1C3E77E3C100007FFFC0C0C0C028
:1001C000C0E0703F1F00001F3F70E0C0C0C0E07083
:1001D0003F1F00007FFFC1C1C1C1C1E3773E1C00CA
:1001E000001F3F70E0C0C0C0E0703F1F0000000073
:1001F0000001FFFF01000000D5F08D14A1C881CFE0
:10020000D9F1AF200004083E09093E3F25251A1EFA
:100210002121123F21211E3F2525213F0505011ED9
:1002200021293A3F04043F213F21001021211F3F93
:10023000040A313F2020203F02023F3F02043F1EBC
:1002400021211E3F0909061E21112E3F09093622D0
:10025000252519013F01011F20201F0F10201F3FDE
:1002600010103F3B04043B03043807312D232110B9
:100270002A2A3C3F2424181C2222141824243F1C20
:100280002A2A2C047E05014C52523E3F0404382495
:100290003D20004040443D3F081422213F20003EC5
:1002A00004043E3E04023C1C22221C7E22221C1C12
:1002B00022227E3E040204242A2A12021F22201E29
:1002C00020201E0E10201E3E10103E360808364E0E
:1002D00050503E322A26221E29251E223F2000325F
:1002E0002929261221251A0C0A3F08172525191E2F
:1002F000252518013905031A25251A0629291E0066
:100300002F00000020000000000000003E5B4F5B5B
:100310003E3E6B4F6B3E1C3E7C3E1C183C7E3C18A8
:100320001C577D571C1C5E7F5E1C00183C1800FF8C
:10033000E7C3E7FF0018241800FFE7DBE7FF3048BA
:100340003A060E2629792926407F050507407F05B4
:10035000253F5A3CE73C5A7F3E1C1C08081C1C3EAB
:100360007F14227F22145F5F005F5F06097F017F99
:10037000006689956A606060606094A2FFA294083C
:10038000047E040810207E201008082A1C08081C7F
:100390002A08081E101010100C1E0C1E0C30383EBF
:1003A0003830060E3E0E06000000000000005F0020
:1003B000000007000700147F147F14242A7F2A12EC
:1003C00023130864623649562050000807030000D2
:1003D0001C2241000041221C002A1C7F1C2A080804
:1003E0003E08080080703000080808080800006017
:1003F000600020100804023E5149453E00427F4003
:100400000072494949462141494D331814127F1061
:1004100027454545393C4A494931412111090736AB
:1004200049494936464949291E0000140000004048
:100430003400000008142241141414141400412242
:10044000140802015909063E415D594E7C121112F1
:100450007C7F494949363E414141227F4141413EED
:100460007F494949417F090909013E414151737F53
:100470000808087F00417F41002040413F017F087C
:100480001422417F404040407F021C027F7F0408CD
:10049000107F3E4141413E7F090909063E415121FD
:1004A0005E7F09192946264949493203017F010324
:1004B0003F4040403F1F2040201F3F4038403F63A7
:1004C0001408146303047804036159494D43007F01
:1004D0004141410204081020004141417F040201D2
:1004E0000204404040404000030708002054547874
:1004F000407F284444383844444428384444287FC2
:10050000385454541800087E090218A4A49C787F1B
:100510000804047800447D40002040403D007F10E6
:1005200028440000417F40007C047804787C080463
:1005300004783844444438FC182424181824241817
:10054000FC7C08040408485454542404043F442404
:100550003C4040207C1C2040201C3C4030403C441F
:10056000281028444C9090907C4464544C440008DB
:100570003641000000770000004136080002010209
:1005800004023C2623263C1EA1A161123A404020D1
:100590007A3854545559215555794121545478414C
:1005A000215554784020545579400C1E527212390E
:1005B00055555559395454545939555454580000C7
:1005C000457C410002457D420001457C40F02924E4
:1005D00029F0F0282528F07C545545002054547CFF
:1005E000547C0A097F4932494949323248484832E5
:1005F000324A4848303A4141217A3A424020780014
:100600009DA0A07D39444444393D4040403D3C24B8
:10061000FF2424487E4943662B2FFC2F2BFF0929FA
:10062000F620C0887E090320545479410000447D9F
:10063000413048484A32384040227A007A0A0A72E9
:100640007D0D19317D2629292F2826292929263093
:10065000484D4020380808080808080808382F10B6
:10066000C8ACBA2F102834FA00007B000008142A06
:10067000142222142A14089500220095AA0055007D
:10068000AAAA55AA55AA000000FF00101010FF00EA
:10069000141414FF001010FF00FF1010F010F014DD
:1006A0001414FC001414F700FF0000FF00FF1414E2
:1006B000F404FC141417101F10101F101F1414142E
:1006C0001F00101010F0000000001F101010101F6D
:1006D00010101010F010000000FF1010101010107B
:1006E000101010FF10000000FF140000FF00FF00BA
:1006F000001F10170000FC04F41414171017141432
:10070000F404F40000FF00F714141414141414F784
:1007100000F7141414171410101F101F141414F4DD
:10072000141010F010F000001F101F0000001F1424
:10073000000000FC140000F010F01010FF10FF1477
:100740001414FF141010101F00000000F010FFFF21
:10075000FFFFFFF0F0F0F0F0FFFFFF0000000000EF
:10076000FFFF0F0F0F0F0F38444438447C2A2A3EF6
:10077000147E02020606027E027E02635549416330
:100780003844443C04407E201E2006027E0202992A
:10079000A5E7A5991C2A492A1C4C7201724C304AC3
:1007A0004D4D303048784830BC625A463D3E49494C
:1007B00049007E0101017E2A2A2A2A2A44445F44F4
:1007C0004440514A444040444A51400000FF010324
:1007D000E080FF000008086B6B08361236243606EE
:1007E0000F090F060000181800000010100030401C
:1007F000FF0101001F01011E00191D1712003C3CE2
:100800003C3C0000000000010164501EC80202963A
:100810005A28C80304C864323C0406FA6E3C3C05FE
:1008200002E15A6400080F141E283C506EC85D0097
:10083000020300D05D00060800182301080B001C0D
:1008400024011015002027011E27078430013241A2
:1008500007A84C01465A072C81015A7400BC8B0131
:100860006E8E00C85D00020300D05D00060800E83F
:10087000AC00080B000CAD0010150070AD001E2878
:1008800007D4B600324307F8D200465E077C070162
:100890005A7900C012016E9400C85D00020300D0B6
:1008A0005D00060800E05D00080B07E45E0010151F
:1008B00007E861001E2A072C6D00324607508900A8
:1008C0004662007090005A7E00B49B006E9A000849
:1008D0000B000202020000090400000102020000F5
:1008E0000524001001052401010104240206052449
:1008F0000600010705810310004009040100020AF7
:1009000000000007050202400000070583024000C6
:10091000000403090412010002EF020140412336E2
:100920008000010102030141726475696E6F204C01
:100930004C430041726475696E6F204C656F6E6147
:1009400072646F00581D11241FBECFEFDAE0DEBFC6
:10095000CDBF11E0A0E0B1E0E2E3FDE602C005900A
:100960000D92AE39B107D9F728E0AEE9B1E001C088
:100970001D92A235B207E1F714E0C3EAD4E004C047
:100980002197FE010E942236C23AD107C9F70E9480
:10099000EC1D0C9497360C940000480F592F511DF4
:1009A0001416150684F5803891056CF597FF02C082
:1009B00090E080E04138510514F040E850E0481BD9
:1009C000FB01E770FF2721E001C0220FEA95EAF75B
:1009D00077FF02C0695F7F4FFB0133E0F595E79534
:1009E0003A95E1F7F695FE2FEE27F795E795E80F94
:1009F000F91FE750FD4F415030F08191DF01119711
:100A0000822B8C93F8CF089597FF02C0905E0895D3
:100A1000811520E292070CF090520895CF92DF9258
:100A2000EF92FF920F931F93CF93DF938A01EC0114
:100A3000C61BD70BBA01550F880B990B982F872F20
:100A4000762F6627C12C42E0D42EE12CF12CA70191
:100A500096010E94B0332C173D0764F4C01BD10BE4
:100A6000CE01DF91CF911F910F91FF90EF90DF901A
:100A7000CF90089566277727601B710B072E000C17
:100A8000880B990B982F872F762F6627A701960141
:100A90000E94B033C217D3071CF7C00FD11FE0CF9D
:100AA0002CE430E0ECE7F7E0A0E0B0E0BD0180E04E
:100AB0000E94AD050E949C05BD011296A20FB31FB6
:100AC0008217930799F38F5F9F4F21F4AF5FBF4069
:100AD000DB0178F00E94EC0840E05091F702609151
:100AE000F80280E20E94A105599A0E948E07A0E0B8
:100AF000B0E07CEF0E94EC084A2F5091F7025B0FA8
:100B00006091F802611D82E00E94A105832F71FDB2
:100B1000822F70FD81910E94B905759518F42150BE
:100B2000304019F01196AA2389F7599A0E948E072E
:100B300021153105F9F608950E94E405982F0C94CB
:100B4000EA0559980E94B905862F0E94B905852F9C
:100B50000E94B905842F0C94B905462F5091F702D5
:100B6000570F6091F802681F83E00E94A1051EBC28
:100B700008958EBD00008EB50DB407FEFCCF08951C
:100B8000ECE7F7E0ACE4B0E060E070E080E00E9409
:100B9000AD059D01AF0160E00E94DF05821793075C
:100BA00051F4D901FA0160E00E94E40581931197A4
:100BB000D9F761E0F1CF0E94EA05862F08950E94DF
:100BC000E405982F0C94E4050DB407FEFDCF8EB517
:100BD0001EBC08950DB407FEFDCF8EB5599A089539
:100BE000E9EFF2E0A0E0B8E000800EBC8111012C3A
:100BF0001197A0FDFDCF0192B9F70DB40895FC0146
:100C00008091F602882311F13FB7F89482E0809337
:100C1000E9002091F200822F90E01816190614F4D2
:100C200081E090E0882339F0289844E64093F5026B
:100C30004091F1004083222339F02091F2002111EC
:100C400003C02BE62093E8003FBF08958FEF9FEF8E
:100C500008952FB7F89483E08093E9009091E8001D
:100C6000892F807295FF04C09091F20080E4891B67
:100C70002FBF08958091ED0281110DC082E0809315
:100C8000E90284E08093EA021092EC021092EB02F7
:100C900081E08093ED0289EE92E00895CF93DF9397
:100CA0001F92CDB7DEB76983DC01ED91FC91028024
:100CB000F381E02D41E050E0BE016F5F7F4F099569
:100CC0000F90DF91CF91089583E08093E9008091A8
:100CD000F200882319F08AE38093E80008950E94C7
:100CE000290690E00895CF93DF931F92CDB7DEB72A
:100CF000FC018485958597FD08C02FEF3FEF358770
:100D000024870F90DF91CF910895CE0101960E9424
:100D1000FF05019719F4898190E0F3CF8FEF9FEFE2
:100D2000F0CF0F931F93CF93DF931F92CDB7DEB712
:100D30008C01FC018485958597FF0BC0CE0101963F
:100D40000E94FF05019771F4898190E0F801958771
:100D50008487F801848595850F90DF91CF911F914D
:100D60000F9108958FEF9FEFF1CFFC01848595855A
:100D700097FD0BC09FB7F89482E08093E9008091C3
:100D8000F2009FBF90E0019608959FB7F89482E02B
:100D90008093E9008091F2009FBF90E00895409118
:100DA000E3025091E4022091E1023091E202421705
:100DB0005307B4F49091E8009570E1F39091E80046
:100DC00092FD19C08093F1008091E3029091E402BA
:100DD00001968F739927892B19F48EEF8093E80081
:100DE0008091E3029091E40201969093E402809353
:100DF000E30281E0089580E00895DF92EF92FF9290
:100E00000F931F93CF93DF93D82E8A01EB017B01C1
:100E1000E40EF51ECE15DF0559F0D7FE12C0FE0117
:100E200084910E94CF0621968111F4CF0FEF1FEF1E
:100E3000C801DF91CF911F910F91FF90EF90DF904C
:100E400008958881EECF0F931F93CF93DF931F9266
:100E5000CDB7DEB782E0898342E450E06FEC78E002
:100E600080E80E94FD060E943A06DC0112960D9170
:100E70001C910115110589F0D801ED91FC910280BA
:100E8000F381E02DBE016F5F7F4FC801099597FD8B
:100E900004C0F80100851185ECCF89810F90DF91A6
:100EA000CF911F910F910895615030F02091F10082
:100EB000FC0120830196F8CF289884E68093F50200
:100EC0000895AF92BF92CF92DF92EF92FF920F936D
:100ED0001F93CF93DF936C017B018B01040F151FD0
:100EE000EB015E01AE18BF08C017D10759F0699138
:100EF000D601ED91FC910190F081E02DC60109959C
:100F0000892B79F7C501DF91CF911F910F91FF9048
:100F1000EF90DF90CF90BF90AF900895599885E003
:100F20000E94B90580E00E94B90580FDFBCF599A67
:100F30000895FC016150704021F00E94E405819306
:100F4000F9CF0E94EA0580830895462F5091AA01A7
:100F5000570F6091AB01681F83E00E94A1051EBC82
:100F600008953F924F925F926F927F928F929F92DD
:100F7000AF92BF92CF92DF92EF92FF920F931F93A7
:100F8000CF93DF935C016B013901842E302E9E2CB0
:100F9000842FB9010E94A5070E94DF05482EC82FA3
:100FA000D92F0E949C05FC019E012A0D3B1D1216A3
:100FB00013060CF0F0C040E8A416B1040CF0EBC02E
:100FC0008C0D9D1D181619060CF0E5C040E4C416E2
:100FD000D1040CF0E0C0B7FE0BC0EE24FF24EA18E9
:100FE000FB084E18203831055CF050E8452E08C04B
:100FF000213831051CF020E8422E4A18F12CE12C52
:10100000D7FEDBC0002711270C191D09087FCF016F
:10101000801B910B5E2E501A8134910534F08C2D7B
:101020008195877040E4542E580E159507951595B7
:10103000079515950795CF010796969587959695EF
:10104000879596958795389E9001399E300D11248D
:10105000200F311F40E0BE010D2E000C880B0E94B6
:10106000E435A82FCB018E0D9F1DA11DF7FCAA957D
:10107000992029F0880F991FAA1FCC0FDD1F24E0AB
:10108000620E711C811C680E791E8A1EC60123E047
:10109000959587952A95E1F7080F31E0C1FC34E07A
:1010A000C0FC330FC2FC329540E80403D001112488
:1010B000AA0DBB1DAE0DBF1DA750BD4F252D5998C4
:1010C00083E08EBD8091AA019091AB01870D981DA0
:1010D0000DB407FEFDCF9EBD0DB407FEFDCF8EBD46
:1010E0000DB407FEFDCF6EBC6C0E7D1E811C0DB4D1
:1010F00007FEFDCF1EBC990C073014F4089430FD98
:101100008894979462E021FD68E022FD629520FFBB
:1011100066956A9511F028300CF06FEF942D0EB49F
:101120001EBC93FC0626862F90FC802D92FC00248A
:10113000039EA00194FA36F4C895C89511240EB404
:101140001EBC90FC082E039E003034F08C9191FE62
:101150004827402148274C93A058BF4F97FE06C010
:101160008C9191FE5827512158275C93112495FCAE
:10117000A15895FEAF57B1099A9589F6842D95FE31
:1011800081958058A80FB11D285003950DB4599A28
:1011900012160CF494CFDF91CF911F910F91FF9015
:1011A000EF90DF90CF90BF90AF909F908F907F9007
:1011B0006F905F904F903F9008955E2E813491051F
:1011C0001CF080E4582E5C1810E000E034CF5998F1
:1011D0000E94B905599A089586E00C94E7083FB734
:1011E000F8948091A6019091A701A091A801B091D7
:1011F000A90126B5A89B05C02F3F19F00196A11D96
:10120000B11D3FBFBA2FA92F982F8827BC01CD0150
:10121000620F711D811D911D42E0660F771F881FAF
:10122000991F4A95D1F708958F929F92AF92BF92DE
:10123000CF92DF92EF92FF926B017C010E94EF0848
:101240004B015C01C114D104E104F104B9F00E9426
:10125000EF08681979098A099B09683E734081057E
:10126000910580F381E0C81AD108E108F10828EE61
:10127000820E23E0921EA11CB11CE4CFFF90EF90E0
:10128000DF90CF90BF90AF909F908F9008958F92F6
:101290009F92AF92BF92CF92DF92EF92FF920F9305
:1012A0001F93CF93DF936C017B018A01809127010B
:1012B000882309F45CC08091F602882309F457C0A2
:1012C0008091E80280FF05C08091E00082608093F9
:1012D000E000E801B12C8AEFA82E93E0892E2AE3E2
:1012E000922E209711F4BB20D9F10E94290681117A
:1012F0000AC0AA94AA20D9F161E070E080E090E0F1
:101300000E941409EECF8C171D0611F00CF08C2FE3
:101310009FB7F8948092E9002091E80025FD02C073
:101320009FBFDFCF282F30E0C21BD30BF7018150C6
:1013300020F041914093F100FACFE20EF31EBB2062
:1013400021F09092E800B12CEBCF8091E80085FD70
:10135000E7CF9092E800BB24B394209709F3F3CF32
:101360005D9884E68093E702101611063CF081E058
:1013700090E0F6019383828310E000E0C801DF91E2
:10138000CF911F910F91FF90EF90DF90CF90BF9082
:10139000AF909F908F9008954F925F926F927F923F
:1013A0008F929F92AF92BF92CF92DF92EF92FF9275
:1013B0000F931F93CF93DF934C015901FC2DC02F46
:1013C000D0E0CE01880D991D181619060CF067C0E3
:1013D0009B012E0D311D121613060CF060C06034F7
:1013E00071050CF05CC04115510509F458C0262F59
:1013F0002770F22EDB0177FD179633E0B595A795A0
:101400003A95E1F73A2F77FF04C0FF2011F03FEF44
:101410003A0F662777276819790997FC02C070E0B0
:1014200060E0803891050CF44BC090E89819961B49
:10143000A32F032E000CBB0B1A2F10953F3F0CF06F
:1014400010E021E08E2D877009F420E0E694E69408
:10145000E694E20EAE0DB11D19971CF028E0E22EC5
:10146000E31AE11A310F20E83203D0011124A80D4C
:10147000B91DA60FB71F019F600D711D1124460FE6
:10148000571F0F2D0F2C000C110BF33009F41CC14A
:10149000C8F4F13009F4D0C0F23009F47CC0DF9117
:1014A000CF911F910F91FF90EF90DF90CF90BF9061
:1014B000AF909F908F907F906F905F904F90089526
:1014C000902FB5CFFA3FB1F1232F2E0DFB3F39F707
:1014D000321729F3BD0167507D4FD12CC12CC9169D
:1014E00008F0A4C0FA01EC0DFD1DE491F0E04F01FD
:1014F000002E02C0880C991C0A94E2F737FD06C042
:10150000FB018081E82CE0948E218083FF2061F034
:10151000373054F45B01F0E8AF0EB11CE92CE094D5
:10152000F50180818E218083FFEFCF1ADF0A6F5F84
:101530007F4FD5CF232F2E0D321709F4B0CFBD0129
:1015400067507D4FD12CC12CC91608F069C0FA0133
:10155000EC0DFD1DE491F0E04F01002E02C0880C5F
:10156000991C0A94E2F737FD04C0FB0180818829A9
:101570008083FF2051F0373044F45B01F0E8AF0E78
:10158000B11CF501808189298083FFEFCF1ADF0A22
:101590006F5F7F4FD9CF6FEF70E00F2C02C0660FE7
:1015A000771F0A94E2F760957095772E232F2E0D02
:1015B000321709F474CFFD01E750FD4F6F01B12CD4
:1015C000A12CA91638F5FA01EA0DFB1DE491F0E013
:1015D0002F01002E02C0440C551C0A94E2F737FD7F
:1015E00005C0F6018081862384298083FF2059F07D
:1015F00037304CF44601F0E88F0E911CF4018081E5
:10160000872185298083FFEFAF1ABF0A8FEFC81AA1
:10161000D80AD7CF3F5F4C0F5D1FA058BF4FC8CF30
:101620003F5F4C0F5D1FA058BF4F86CF3F5F4C0FF1
:101630005D1FA058BF4F4CCF6A0D7B1D232F2E0D71
:10164000321709F42CCFFD01E750FD4F6F01B12C8B
:10165000A12CA91688F5FB01EA0DFB1D8490912CA5
:10166000002E02C0880C991C0A94E2F78094909492
:10167000FA01EA0DFB1D6490712C002E02C0660C6D
:10168000771C0A94E2F737FD05C0F60180818821B6
:1016900086298083FF2049F037303CF4F601E0587A
:1016A000FF4F8081892187298083FFEFAF1ABF0A0E
:1016B0008FEFC81AD80ACDCF3F5F4C0F5D1F6C0F5C
:1016C0007D1FA058BF4FBCCFC92ED12CFA01E60F09
:1016D000F71FA750BD4F00E810E00C191D09CC19E9
:1016E000DD09BE01660F771F41E050E06A010F2C53
:1016F00001C0CC0C0A94EAF7592F2E2D792ECF93E6
:10170000DF93ED01EF96EF9622968590A590FF204E
:1017100059F08C9C4001AC9C500137302CF4E8808F
:10172000B094EB20E928E99233233AF0EC90A094AE
:10173000EA20E828ED920C949E0B11965A9529F711
:101740002A9551F0572D33951124E60FF11DA00F66
:10175000B11DC00FD11DD9CFDF91CF9111249FCEE4
:101760002D9A0895BC0190E080E00C9414098FB18B
:101770008095807F669B88601C9B846008955C9840
:101780008EBD00000DB407FEFDCF5C9A08959091C8
:10179000D201982329F49091D301982381E009F490
:1017A00080E00895CF93C82F0E94B70B982F9C23F9
:1017B00081E09C1380E0CF91089580389105B8F4C2
:1017C00060347105A0F420E191E061FD94E060FDDA
:1017D000990F62FD9295687F269FD0011124A80F72
:1017E000A750BD4F8C9140FF03C0892B8C93089567
:1017F00090958923FBCF8F929F92AF92BF92CF9209
:10180000DF92EF92FF920F931F93CF93DF936D3090
:1018100089F0C090D601D090D7016A30D1F41092EF
:10182000D5011092D40188E0C80ED11CD092D70106
:10183000C092D60181E090E0DF91CF911F910F918E
:10184000FF90EF90DF90CF90BF90AF909F908F90E0
:1018500008950091D4011091D501E5E06E9FE0015B
:101860001124C95FDC4F4801F12CF5E0E12CFF1693
:1018700029F0CE010196FE01E490EC01B12CA12CDF
:101880004E2D4170B6016A0D7B1DC4010E94DD0B17
:10189000E694FFEFAF1ABF0A88E0A816B10481F7FB
:1018A000F394EFEF8E1A9E0AF6E0FF12DECF0A5F86
:1018B0001F4F1093D5010093D401BCCFDF92EF925C
:1018C000FF920F931F93CF93DF937C01D22E8B0156
:1018D000040F111DEB0177FF02C0D0E0C0E0C8018A
:1018E0000134110514F080E490E0C817D9073CF4E6
:1018F0004D2DBE01C7010E94DD0B2196F0CFDF9177
:10190000CF911F910F91FF90EF90DF900895EF928C
:10191000FF920F931F93CF93DF937C018B01C42F12
:10192000D22F6034710514F40E94CD04B8016D0FFC
:10193000711D615071096034710520F44C2FC7018D
:101940000E94CD0421E04D2FB801C7010E945E0C1A
:10195000C7018C0F911D21E04D2FB8010197DF9138
:10196000CF911F910F91FF90EF900C945E0CCF924E
:10197000DF92EF92FF920F931F93CF93DF936B0150
:10198000122FEC017C01E40EF11CCE15DF0544F4AE
:10199000202F412FB601CE010E945E0C2196F5CF7B
:1019A000DF91CF911F910F91FF90EF90DF90CF903B
:1019B0000895CF92EF920F93CF93DF93EC018E8136
:1019C0006A3069F49D819C836985860F8E8381E0EE
:1019D00090E0DF91CF910F91EF90CF9008956A330F
:1019E00078F4603308F051C0613209F450C09FE3CD
:1019F0006E3291F098859C5F8C81890F8C83E7CF44
:101A00006134C0F36B3530F09FE9960F9A3190F74F
:101A100099EB01C09FEB960F61E0680F062E000C5A
:101A2000770BAC810A2E000CBB0BE5E0F2E026E060
:101A300032E08F81813069F50491F901E49047E04B
:101A400052E09923D1F041E050E08E2D877011F4DF
:101A500050E040E02E2D269526952695240F352F13
:101A6000311D029FF001039FF00D11249E9FA001E4
:101A70009F9F500D1124495F5D4F9AEFC92E30E0B2
:101A800020E0CD010E94CC09B5CF94E0C4CF9EE305
:101A9000C3CF0491F901E49047E052E09923D1F0DB
:101AA00041E050E08E2D877011F450E040E02E2D83
:101AB000269526952695240F352F311D029FF0017E
:101AC000039FF00D11249E9FA0019F9F500D112494
:101AD000495F5D4F8BEFC82ED2CF0F931F93CF93EB
:101AE000DF93D62FC42FBC01621B730B072E000C93
:101AF000880B990B982F872F762F6627A801421BFA
:101B0000530B9A01032E000C440B550B0E94B0336B
:101B1000A0E0B1E0A21BB30BB7FF02C0B0E0A0E0B1
:101B20008C2F8D1B990B382FA13091E0B90714F041
:101B3000A0E0B1E020E00E942836672F782F892F9F
:101B4000992787FD9A958D2F870FDF91CF911F9150
:101B50000F910895EF920F93E12C00E02EE534E110
:101B600040E067E270E089E090E00E94B1070F91E9
:101B7000EF9008954F925F926F927F928F929F9213
:101B8000AF92BF92CF92DF92EF92FF920F931F938B
:101B9000CF93DF93CDB7DEB7A4970FB6F894DEBF2F
:101BA0000FBECDBF8C01DC011396EC90B4E0EB9E30
:101BB00070011124FC016081718182810E94A5075E
:101BC000B701CE0101960E949907D8011496CC90D6
:101BD000B4E0CB9E60011124E1E0F0E0EC0FFD1FCA
:101BE000CE0EDF1ED60111966C91119770E08C918C
:101BF00013962C91139712964C9190E00E94870CAB
:101C000080912C0190912D01A0912E01B0912F0176
:101C1000898F9A8FAB8FBC8F809130019091310169
:101C2000A0913201B09133018D8F9E8FAF8FB8A3F9
:101C30008091340190913501A0913601B091370126
:101C400089A39AA3ABA3BCA35E01B9E1AB0EB11CFF
:101C5000F12CE12CF50181915F010E94C70B8823D3
:101C600009F47AC0D6018C90912C1196AC914A2E31
:101C7000512CF8017380FE01319680E0AA24AA94C9
:101C80009FE7B92E9FEF2DE1C22ED12CCC0EDD1E89
:101C9000CE0CDF1C21E230E02C0F3D1FE20EF31EC4
:101CA000781609F43DC0D80114962C912817A9F193
:101CB000408150E048195909218130E02419350943
:101CC000D6016C90662049F0662D6403D001659FB3
:101CD000B00D11241A161B0604F5D7016C9066206E
:101CE00049F0662D6203D001639FB00D11241A16CE
:101CF0001B069CF4449FB001459F700D700D11248C
:101D0000229FA001239F500D500D1124640F751FB9
:101D10006A157B0514F4982F5B018F5F3496C0CF52
:101D20009F3F19F0D80114969C93A4960FB6F8948F
:101D3000DEBF0FBECDBFDF91CF911F910F91FF90FE
:101D4000EF90DF90CF90BF90AF909F908F907F905B
:101D50006F905F904F900895BFEFEB1AFB0AE4E09D
:101D6000EE16F10409F076CFE0CF0E94C005811194
:101D700004C084E08093E00208950E94C005809131
:101D80007C078093050880917D0790917E07A09144
:101D90007F078093060890930708A093080821E026
:101DA00038E08CE797E0AC0162E1F9013896DA019E
:101DB000569601900D926A95E1F72E5E3F4F4E5E6A
:101DC0005F4F68E02733360779F72FEB31E046E0C5
:101DD000FC013496D90101900D924A95E1F70696DF
:101DE0002A5F3F4F47E08E38940789F785E0C2CFDE
:101DF0008091050880937C078091060890910708E0
:101E0000A091080880937D0790937E07A0937F0799
:101E100081E098E02CE737E0A90162E1FC01389607
:101E2000DA01569601900D926A95E1F742964E5E60
:101E30005F4F68E08733960781F78FEB91E046E0CC
:101E4000FC01D901149601900D924A95E1F706968E
:101E50002A5F3F4F41E0813D940789F708950F9332
:101E6000FC01DB016D917C91072E000C880B990B16
:101E7000982F872F762F66272081318142815381C9
:101E80000E94373600E10E947136B901CA010F91F4
:101E90000895DC011A960D9626E0ED91E11104C03B
:101EA00012961C9212970CC0E150E530C8F7E29FE1
:101EB000F0011124E45FF74FE4911296EC9312972E
:101EC000A817B90751F708955F926F927F928F928A
:101ED0009F92AF92BF92CF92DF92EF92FF920F93B9
:101EE0001F93CF93DF93E82FF0E0EE0FFF1FE65A2A
:101EF000FE4F60807180812C209106083091070888
:101F00004091080826153705480508F460C09091EF
:101F10000908992309F46BC090911B08992309F4CF
:101F20006AC090912D08911152C092E0E92E02E012
:101F300010E0F82E82E1982E909EC001919E900DA7
:101F40001124EC01CF5FD74F552453945886F9865E
:101F50009C01275F374F590124E62B871A86FC0125
:101F6000E35FF74F6F010F5F1F4FF2E0FF1609F4B9
:101F700047C083E390E0F501918B808B66E070E0D1
:101F800080E00E94A50766E070E0C6010E94990704
:101F9000909EF001919EF00D1124EF5FF74F83E0CA
:101FA00080838B8B5C8AC5010E94490F8091060853
:101FB00090910708A091080886199709A8098093AD
:101FC000060890930708A0930808E0923F08DF9165
:101FD000CF911F910F91FF90EF90DF90CF90BF9026
:101FE000AF909F908F907F906F905F900895E12CBD
:101FF00010E000E09ECFEE24E39401E010E099CFE2
:1020000089E190E0F501918B808B6CE070E080E0DD
:102010000E94A50766E070E0C6010E949907909EA5
:10202000F001919EF00D1124EF5FF74FF08284E0F4
:102030008B8B85E08C8BB7CF882359F0815085300E
:1020400040F496E0899FF0011124E85FF74F8491F6
:10205000089580E00895803419F480E091E00895B7
:10206000E82FF0E0EE0FFF1FE455FF4F85919491AC
:102070000895982F8F7392959695969593709230B8
:1020800049F0933029F0913041F090E4981B892F6A
:102090000C942B1090E4981B892F0E942B10919583
:1020A000819591090895982F8F739295969596959D
:1020B0009370923069F0933041F0913011F00C94AC
:1020C0002B1090E4981B892FFACF90E4981B892F4E
:1020D0000E942B1091958195910908952F923F921E
:1020E0004F925F926F927F928F929F92AF92BF9228
:1020F000CF92DF92EF92FF920F931F93CF93DF93D4
:102100006A0120910308309104088C01021B130B13
:102110002091010830910208EB01C21BD30B01157D
:1021200020EF12070CF46CC0C801905F892F99272B
:1021300082958695877040E050EE849F9001859F40
:10214000300D949F300D1124020F131FC11560EF45
:10215000D6070CF457C0CE01905F892F992782953E
:102160008695877020E030EE829FB001839F700DCE
:10217000929F700D1124C60FD71F809143080E94B3
:1021800053104C01809143080E9439101C0180912A
:1021900043080E9453109C01D8010E942836472E04
:1021A000582E692E772467FC7A94809143080E9408
:1021B00039109C01DE010E942836672F782F892F65
:1021C000992787FD9A957B01E418F508C70181508E
:1021D000914081159F41C0F080E0DF91CF911F9128
:1021E0000F91FF90EF90DF90CF90BF90AF909F90B6
:1021F0008F907F906F905F904F903F902F900895B9
:10220000105E8DCFD05EA2CF27010F2C000C660888
:1022100077089E01D4010E942836872E982EA92E79
:10222000BB24A7FCBA949801D1010E942836672FDD
:10223000782F892F992787FD9A95680D791D072E8C
:10224000000C880B990B982F872F762F6627A301F8
:1022500092010E94B033C90137FF04C08827992733
:10226000821B930B813091400CF0B6CFA0E0B8E711
:102270000E94CF33672F782F892F992787FD9A9552
:10228000C0E4C70FC7FDA8CF60E070E088E790E02A
:10229000A30192010E94B033365F303408F09CCF26
:1022A000F601C0833183F382E28281E096CF089504
:1022B00090E080E00895FC0101900020E9F731975B
:1022C000AF01481B590BBC0184E498E00C946107F2
:1022D0008F929F92AF92BF920F931F93CF93DF93F2
:1022E000CDB7DEB7A1970FB6F894DEBF0FBECDBF56
:1022F00019A2423008F44AE08E010F5D1F4F842E70
:10230000912CB12CA12CA50194010E94E233E62F5F
:10231000B901CA01EA30F4F4E05DD801EE938D0111
:10232000232B242B252B79F790E080E0109719F0D0
:10233000CD010E945B11A1960FB6F894DEBF0FBECF
:10234000CDBFDF91CF911F910F91BF90AF909F9024
:102350008F900895E95CE1CF682F70E090E080E015
:102360004AE00C9468112F923F924F925F926F92C5
:102370007F928F929F92AF92BF92CF92DF92EF9215
:10238000FF920F931F93CF93DF93CDB7DEB7629782
:102390000FB6F894DEBF0FBECDBF8FEBC82E81E025
:1023A000D82E93E0492E512C612C712C1E012DE06A
:1023B000220E311C22E0822E912CA12CB12C809176
:1023C00005088A30A8F40E943933A50194010E94BF
:1023D000B033DC01CB010196A11DB11D082FFE0118
:1023E0003E9620E0201708F0C5C011922F5FFACF6B
:1023F000843108F057C00E943933A50194010E942E
:10240000B03312E0160F1E8601E0113031F01F8646
:1024100002E0123011F0188A03E01D87E8EEF3E0C5
:102420000E9FC0010F9F900D11249A8B898B86E01F
:10243000F101DE01119601900D928A95E1F786E097
:10244000FE013196DE01179601900D928A95E1F713
:1024500086E0FE013796D60101900D928A95E1F74C
:10246000F6E0CF0ED11C21ED31E02C153D0509F031
:10247000A6CF62960FB6F894DEBF0FBECDBFDF9138
:10248000CF911F910F91FF90EF90DF90CF90BF9071
:10249000AF909F908F907F906F905F904F903F9004
:1024A0002F9008958E3128F50E943933A3019201AF
:1024B0000E94B03311E0160F710100E08E2D8219D9
:1024C000811708F0AACF0E943933A50194010E9418
:1024D000B033672B682B692B41F421E0F70121838E
:1024E0000E5FFFEFEF1AFF0AE9CFF70111820F5FCE
:1024F000F8CF883230F50E943933A30192010E944F
:10250000B03311E0160F710100E08E2D8219811792
:1025100008F083CF0E943933A50194010E94B033A3
:10252000672B682B692B41F421E0F70121830E5FB3
:102530003FEFE31AF30AE9CF22E0F70121830D5FB1
:10254000F7CF0E943933A30192010E94B033DC011E
:10255000CB010196A11DB11D182FFE013E9620E072
:10256000211720F0082F000F080F57CF32E03193CA
:102570002F5FF6CF182F51CF1F93CF93DF93CDB797
:10258000DEB72C970FB6F894DEBF0FBECDBFE4E4E4
:10259000F1E0E4918E1778F1E5E4F1E0E4918E1733
:1025A00008F442C0E6E4F1E0E4918E1708F43FC07D
:1025B00046E050E06EE371E0CE0101960E94913357
:1025C00086E0FE013196DE01179601900D928A9504
:1025D000E1F72F81388549855A856B857C8580E0B8
:1025E00090E02C960FB6F894DEBF0FBECDBFDF9102
:1025F000CF911F91089590E080E016E0189FB00100
:10260000199F700D1124645D7E4F46E050E0CE01AD
:1026100001960E949133FE013196DE0117960190DA
:102620000D921A95E1F7D5CF81E090E0E6CF82E0F8
:1026300090E0E3CF0F931F93CF93DF9300D000D0B0
:1026400000D0CDB7DEB7282F30E093E1899F80011D
:1026500011240853184FF801808591850097B1F433
:102660004481423099F082E08483148685810E94FF
:10267000BC12F801758726960FB6F894DEBF0FBE20
:10268000CDBFDF91CF911F910F91089570E0681732
:102690007907B8F443E1429FF001439FF00D112404
:1026A000E853F84F861B970B9187808783E1829FC1
:1026B000F001839FF00D1124E853F84F81E08687E5
:1026C000DACF83E1829FF001839FF00D1124E8535C
:1026D000F84F11861086EACFCF93DF93CDB7DEB7E0
:1026E0002C970FB6F894DEBF0FBECDBF682F26E043
:1026F000CE010796FC01322F11923A95E9F7653029
:1027000048F4629FB0011124695F774F46E050E0C2
:102710000E94913386E0FE013796DE01119601900A
:102720000D928A95E1F729813A814B815C816D8117
:102730007E8180E090E02C960FB6F894DEBF0FBE4D
:10274000CDBFDF91CF9108952F923F924F925F922C
:102750006F927F928F929F92AF92BF92CF92DF92B1
:10276000EF92FF920F931F93CF93DF93CDB7DEB716
:1027700062970FB6F894DEBF0FBECDBF90E1E92E91
:1027800000E028E73DE340E070E060E090E080E0BA
:102790000E94B10785E0E8E3F1E0DE0117960190C1
:1027A0000D928A95E1F780913D0190913E01A091B3
:1027B0003F018C879D87AE875E0137E0A30EB11C79
:1027C0007E014CE0E40EF11C6E015AE0C50ED11CF6
:1027D00002E312E1D5018D915D0100934908009358
:1027E000480880934A08F70121917F0180913F08B2
:1027F000189FC00111248F5F974F820F911DDC013C
:102800001C968C910E94AC11CA14DB0419F700933A
:1028100049080093480885E180934A08E0913F0801
:102820001E9FF0011124EF5FF74F608D718D072E11
:10283000000C880B990B0E94BD3420E030E040E88A
:102840005BE30E9472356B017C011B012C01AC0122
:102850009B010E94DF35882309F467C081E991E07C
:102860000E945B1182E3809349088093480882E2CA
:1028700080934A088091060890910708A091080863
:10288000BC018A2F90E04AE00E9468111091A401D7
:10289000111108C08091A301811104C080E091E072
:1028A0000E94BA0D84E00E94C70B882329F01123EF
:1028B00009F4D4C01092A40188E00E94C70B8823B9
:1028C00099F08091A30181110FC08091A401811121
:1028D0000BC080910401813009F4D0C010F0823027
:1028E00019F481E08093A4018091A3019091A40147
:1028F0009111CBC0811195C162960FB6F894DEBFDD
:102900000FBECDBFDF91CF911F910F91FF90EF9040
:10291000DF90CF90BF90AF909F908F907F906F90FF
:102920005F904F903F902F900895D701C601BF77D9
:102930008F87988BA98BBA8B2FEF3FEF4FE75FE71D
:10294000BC01CD010E94DF3581110FC02FEF3FEF99
:102950004FE75FE76F85788989899A890E9480347B
:1029600018161CF485E991E07BCF2FEF3FEF4FE77E
:102970005FE4C701B6010E946D3518161CF489E9A1
:1029800091E06ECF2FEF3FEF4FE75FECC701B6014D
:102990000E94803487FDF3CF20E030E0A901C70119
:1029A000B6010E94803487FF0BC06DE284E498E09A
:1029B0000E94D90C1601270157FA509457F85094E9
:1029C0002AE037ED43EA5BE3C201B1010E9414340F
:1029D0001B012C010E948C346B017C010E94BB34D2
:1029E0009B01AC01C201B1010E9413341B012C01F7
:1029F0004AE0C701B6010E9468116EE284E498E0E3
:102A00000E94D90C20E030E040E251E4C201B10163
:102A10000E9472351B012C010E948C346B01F12C39
:102A2000E12C4AE0C701B6010E946811C701B60156
:102A30000E94BB349B01AC01C201B1010E9413345E
:102A400020E030E040E251E40E9472350E948C3474
:102A500090E080E04AE00E94681104CF8091A301D9
:102A6000882339F01092A2011092A1011092A301C3
:102A700023CF8091DF028093E0021ECF8093A301D9
:102A80001092A00180939F012FCF8111CAC0809125
:102A9000040113E0FF24F394882319F011E080E28D
:102AA000F82E80E40E94C70B882309F46AC0E091E5
:102AB0003F08A12EB12C02E1D02EDE9EF0011124A0
:102AC000EF5FF74FCF018A0D9B1DA1E0A10F9F0182
:102AD0002A0F311DDC011C969C91D9011C968C910A
:102AE000981708F04EC0808D918D181619060CF0BD
:102AF00048C08091060890910708A0910808843684
:102B00009105A105F0F16F2D70E0B0E1EB2E00E032
:102B10002CE935E440E080E790E00E94B107809125
:102B20003F08D89EF0011124EF5FF74FDF01AA0D97
:102B3000BB1D1C969C911C979F5F1C969C93948533
:102B40009F5F9487208D318D22503109318F208FE6
:102B5000609006087090070880900808B4E66B1A29
:102B60007108810860920608709207088092080830
:102B700037FF07C08D9DF0011124E75EF74F1182EA
:102B8000108280E20E94C70B882309F4B5CEE09141
:102B90003F08C12ED12C12E11E9FF0011124EF5FDE
:102BA000F74FDF01AC0DBD1D1C968C91823008F4EF
:102BB000A3CE8485823008F49FCE6F2D70E0A0E113
:102BC000EA2E00E02CE735E440E088E490E00E9443
:102BD000B107E0913F081E9FF0011124EF5FF74F0E
:102BE000DF01AC0DBD1D1C968C911C9781501C966D
:102BF0008C93848581508487808D918D0296918FEE
:102C0000808F8091060890910708A09108088C5940
:102C10009F4FAF4F8093060890930708A093080832
:102C20006BCE8091A2018111E2C08091A10181113E
:102C300092C11091A00100E022E346E468E070E058
:102C400088E090E00E94B70C22E346E467E070E081
:102C500087E090E00E94870CE12C2AE034E040E01D
:102C60006AE070E08AE090E00E94B10774E1A72E6C
:102C7000B12CD12CC12CECE09E2EF2E1FF2E1C11C8
:102C80000DC09C9CB0019D9C700D11246D5E7F4F0A
:102C90002AE044E488E090E00E94870C80913F089D
:102CA000F601F89EE00DF11D1124EF5FF74F8289C8
:102CB000823009F466C008F052C0882309F472C05B
:102CC000813009F458C0E12C00E0482D9301B50192
:102CD0008CE090E00E94B107EFEFCE1ADE0AFCE034
:102CE000AF0EB11C33E0C316D10449F680E80E9450
:102CF000C70B882331F0112309F45AC011501093E7
:102D0000A00180E10E94C70B882341F08091A001BF
:102D1000823008F04FC08F5F8093A00188E00E944E
:102D2000C70B882339F080919F01882309F444C0A0
:102D300010929F018091BD01882309F4DDCD0E948E
:102D4000AA0D88E00E94C70B811106C084E00E9492
:102D5000C70B882309F4D0CD1092BD01CDCD8430AE
:102D6000D9F0A0F0853009F0AECF2AE7622E25E039
:102D7000722E812CA8CF6EED662E64E0762E812C0B
:102D8000A2CF612C55E0752E812C9DCF47E2642E99
:102D900045E0742E812C97CF39E4632E35E0732EF5
:102DA000812C91CF97E9692E95E0792E812C8BCFDC
:102DB00012E0A5CF80E0B0CF80913F082091A00124
:102DC00042E1849FC00111248F5F974F820F911DB4
:102DD000DC0152968C91811106C081E08093A201A2
:102DE00010929E01A7CF81E08093A101A3CF109103
:102DF0009E0180E1E82E00E02CEB3DE040E061E048
:102E000070E088E090E00E94B107153008F051C0F2
:102E1000612F660F660F660F665F70E028E04CE377
:102E200088E090E00E94870C812F0E946C133A8307
:102E30004B835C836D837E83E12C20E633E140E0AD
:102E40006DE070E08AE390E00E94B1071CE510930A
:102E50004908109348088EE080934A088A810E94AE
:102E6000AC11109349081093480885E180934A08F3
:102E70008D810E94AC1110934908109348088CE191
:102E800080934A088C810E94AC11109349081093DA
:102E9000480883E280934A088E810E94AC11109307
:102EA0004908109348088AE280934A088B810E945F
:102EB000AC1180E80E94C70B882341F080919E01ED
:102EC000882309F440C0815080939E0180E10E94D4
:102ED000C70B882339F080919E018430B0F58F5F55
:102EE00080939E0188E00E94C70B882309F422CFBB
:102EF00080919E010E946C138091060890910708B2
:102F0000A0910808C42ED12CE12C8C159D05AE058E
:102F1000F0F08C199D09AE0980930608909307087C
:102F2000A093080880913F083091A001B2E18B9FE7
:102F3000C00111248F5F974F830F911DFC01228BDD
:102F40001092A201F7CE84E0BFCF80E0C9CF81E02C
:102F50008093BD01EFCE00E024E143E569E170E03C
:102F60008AE090E00E94B70C24E143E569E170E05B
:102F70008AE090E00E94870CE12C2AEF31E040E0EB
:102F80006BE170E08CE090E00E94B10729EC31E049
:102F900040E063E270E08CE090E00E94B10788E0DE
:102FA0000E94C70B882309F4C5CE40913F08E091E9
:102FB000A0018E2F90E0242F30E0FC0152E1459FCC
:102FC000E00DF11D1124EF5FF74FE289EE2329F1A7
:102FD000E150E53028F5A6E0EA9FF0011124E75F13
:102FE000F74FE491E695C0900608D0900708E0906E
:102FF0000808CE0ED11CE11CC0920608D09207082A
:10300000E092080842E1429FF001439FF00D112435
:10301000EF5FF74FE80FF91F128A1092A1018ACED5
:10302000E0E0E0CF0C949A332F923F925F926F9240
:103030007F928F929F92AF92BF92CF92DF92EF9248
:10304000FF920F931F93CF93DF9381EC80937C00CB
:1030500085B1806F85B984B1877E84B984B1876E6C
:1030600084B95E9A5F988AB1806D8AB9769A6E98B3
:1030700081B3806F81BB899880B38D7080BB80E500
:103080008CBD81E08DBD85E090E00E94B20B5F9A1F
:1030900085E090E00E94B20B5E985C98E8EFF1E06A
:1030A00085E092E024912EBD00000DB407FEFDCF17
:1030B00031968E179F07B1F75C9A81E88093640080
:1030C0008091650081608093650080E00E94F0053A
:1030D00080E80E94D20B882381F085EA0E94BF0B12
:1030E0002E982F982D9880916400806280936400C0
:1030F00081E083BF889513BEFCCF84E00E94D20B91
:10310000882309F448C02D9884E80E94D20B8823B4
:10311000E1F00E94B00B88EC90E00E94B20B2F9877
:1031200082E090E00E949A338F3F29F06FEF82E0B7
:1031300090E00E94A23384EF91E00E94B20B2F9A9C
:1031400084E80E94D20B8111FBCF84E10E94D20B54
:103150008823E1F00E94B00B88EC90E00E94B20B53
:103160002E9882E090E00E949A33882329F060E054
:1031700082E090E00E94A23384EF91E00E94B20BC3
:103180002E9A84E10E94D20B8111FBCF88EC90E053
:103190000E94B20BB2CF0E94B00B82E090E00E947E
:1031A0001218882309F4A4C03E9A3F9A81E090E067
:1031B0000E94121881FF13C0082F0470502E82FD48
:1031C0002E98C1EFDFEF08E010E080E40E94D20B00
:1031D000882309F490C02E9A2F9A0E94B00B82E3A4
:1031E00090E00E94B20B0E94B70B8111F8CF81E2F0
:1031F00080930501809164008E7F809364008091AC
:103200007A00806480937A0080917A0086FDFCCFFA
:10321000C0917800D09179000E94EF08AB01BC0109
:10322000CE01B0E0A0E0DC01992788278C019D0148
:10323000040F151F261F371FC901B8012091640014
:10324000216020936400611571058105910511F0DD
:103250000E9488335E9AE4E1F0E081EB9DEF60EF3D
:103260007FEF25913591559145912851354909F4C4
:10327000CA018093AA019093AB0125913591559194
:1032800045912851354909F4BA016093F7027093CA
:10329000F8028BEA0E94E7080E94C00549ED51E060
:1032A00090E080E0FA0130E020E091838083338376
:1032B000228334963C5F211510E23107B1F7405E5E
:1032C0005F4F9C5F811520E2920761F7DF91CF91FC
:1032D0001F910F91FF90EF90DF90CF90BF90AF9034
:1032E0009F908F907F906F905F903F902F90089568
:1032F0003E983F985BCF552029F0C430D10511F49A
:103300002E9A2F9881E00E94F0059E01D7FF04C0FD
:10331000222733272C1B3D0B27703327CE01D7FDE7
:10332000079673E0959587957A95E1F7D7FF05C0E5
:103330000197A801421B530B9A01AC015695542FDB
:1033400044275795479547505D4FB0E0A0E03801BE
:10335000621A730A8E3F6FEF960709F43BC07A0139
:1033600070E060E0FD01E85BFE4F5F014A01F0E8BC
:103370008F0E911C8F3F980779F0F501E60FF71F2C
:10338000E491F0E06F01022E01C0CC0C0A94EAF740
:10339000F701D488CD28C48A2115310599F0F501AB
:1033A000E60FF71FE4916401C60ED71EF0E01F017F
:1033B000062C02C0359427940A94E2F7F60134886B
:1033C0002328248A6F5F7F4FFFEFEF1AFF0A6835CB
:1033D000710581F60196A85ABF4F40585F4FA03B38
:1033E000B10509F0B7CF80E00E94F0058FE090E0D2
:1033F0000E94B20B2196C931D10509F0E6CE5520C5
:1034000011F02F9A2D9880E991E00E94B20B0E9452
:10341000B00B81E090E00E94121880FFE0CE8AE0BD
:1034200090E00E9412189FEF980F9E3F08F0D7CEB1
:1034300022E330E03093D5012093D40128E330E03B
:103440003093D7012093D601CBE0D0E0682F8EE4F3
:1034500098E00E94FB0BCE010E9412182196C13108
:10346000D105A1F780E00E94F00588EE93E00E946C
:10347000B20BB5CE1F920F920FB60F9211248F93FD
:103480009F938091E1009091E100937F9093E10000
:1034900083FF0FC01092E90091E09093EB0010922F
:1034A000EC0092E39093ED001092F60298E0909376
:1034B000F00082FF22C093E09093E9009091F20027
:1034C000992319F09AE39093E8009091E7029923E9
:1034D00041F09091E70291509093E702911101C061
:1034E0005D9A9091F502992341F09091F5029150E7
:1034F0009093F502911101C0289A84FF18C0809121
:10350000E2008E7E81608093E2008091E1008F7EF8
:103510008093E1008091E8028E7E80618093E802D2
:103520009F918F910F900FBE0F901F90189580FF65
:10353000F7CF8091E2008E7E80618093E2008091DF
:10354000E1008E7E8093E1008091E8028E7E8160B2
:10355000E5CF1F920F920FB60F921124CF92DF92F8
:10356000EF92FF920F931F932F933F934F935F938D
:103570006F937F938F939F93AF93BF93EF93FF933B
:10358000CF93DF93CDB7DEB76C97DEBFCDBF109280
:10359000E9008091E80083FF25C068E0CE014596F0
:1035A0000E94540782EF8093E8008D8987FF39C01D
:1035B0009091E80090FFFCCF982F907609F034C1ED
:1035C0009E894F89588D2F89F88C911131C0803890
:1035D00061F58091E6028093F1001092F1008EEF88
:1035E0008093E8006C960FB6F894DEBF0FBECDBF97
:1035F000DF91CF91FF91EF91BF91AF919F918F910B
:103600007F916F915F914F913F912F911F910F91FA
:10361000FF90EF90DF90CF900F900FBE0F901F9014
:1036200018959EEF9093E800C7CF1092F100D5CF88
:10363000913059F48111D3CF4130510581F68091F9
:10364000E6028D7F8093E602CACF933049F4811160
:10365000C6CF4130510519F68091E6028260F2CF63
:10366000953041F48091E80080FFFCCF20682093E2
:10367000E300B5CF963009F0A9C00B8D1C8D22E078
:103680001092E9001092E4021092E302F2122EC0AE
:103690001092E2021092E1020E9423071F8299E039
:1036A0009983FA8291E09E8390EA98879AEF9987AE
:1036B0002091E3023091E402275F3F4F3C832B834C
:1036C0008D831092E9001092E4021092E3021093AD
:1036D000E2020093E10249E050E0BE016F5F7F4FDC
:1036E00080E00E94FD060E94230779CF1093E2023A
:1036F0000093E1020E943A06DC0112960D911C91A2
:103700000115110509F451C1D801ED91FC91048016
:10371000F581E02DBE016B5E7F4FC80109950097D2
:1037200009F03EC1F80100851185EACFF3E0FF12F0
:103730000EC08F89882309F440C0823061F440E8CC
:1037400060E183E399E00E94251D811148CF81E269
:103750008093EB0047CF813029F440E86BE087E2AB
:1037600099E0F1CF833099F70E943A06DC01129676
:10377000ED90FC908E010F5F1F4F6801E114F10482
:1037800079F0D701ED91FC910680F781E02DB80129
:10379000C7010995080F111DF701E084F184EECFF0
:1037A000D8011C92F60101900020E9F73197BF0182
:1037B0006C197D0940E0C601C6CF61E179E0FB01EB
:1037C000449150E080E80E94FD0609CF973009F44B
:1037D000BECF983021F481E08093F10000CF993082
:1037E00009F0FDCE837009F0B2CFE1E6F1E081E0AF
:1037F00031E096E32191222371F08093E900309328
:10380000EB00DF0111972C912093EC009093ED00D9
:103810008F5F873079F78EE78093EA001092EA0095
:103820008F898093F602DBCE8B8D9C8D1092E90000
:103830001092E4021092E3029093E2028093E1027C
:10384000898D811192C08E899D89913A49F4813286
:1038500009F07DCF47E050E060E271E080E0B3CF57
:10386000913209F074CF833269F48F89988DB0E07A
:10387000A0E080931C0190931D01A0931E01B093C2
:103880001F01ADCE803269F48091E80082FFFCCF49
:1038900067E080E291E00E9454078BEF8093E8009C
:1038A0009ECE823209F09BCE8F8980932701EEEF66
:1038B000FFE7859194918B3F9C4D51F1E0E0F8E05A
:1038C0008091200190912101A0912201B0912301CA
:1038D000803B9440A105B105F1F48091270180FD62
:1038E0001AC0EE3F8AE0F80789F587E797E79183EA
:1038F0008083809160008093E50288E19BE00FB6B1
:10390000F894A895809360000FBE9093600067CEF6
:10391000EEEFFAE0D5CF808191818737974709F0A4
:103920005ECEA89580916000886180936000809150
:10393000E50280936000EE3F2AE0F20789F0809173
:10394000FE0A9091FF0A9183808349CE8081918104
:103950008737980751F29093FF0A8093FE0AC5CFEC
:103960001092FF0A1092FE0A3ACE0E943A06DC013B
:1039700012960D911C910115110509F4E8CED8019C
:10398000ED91FC910190F081E02DBE016B5E7F4FC7
:10399000C8010995811123CEF80100851185EBCF6F
:1039A000181619060CF41BCED2CEF1E0FF12BECED3
:1039B00065E179E004CF1F920F920FB60F921124A8
:1039C0002F933F938F939F93AF93BF938091AC01BD
:1039D0009091AD01A091AE01B091AF013091A501E0
:1039E00023E0230F2D3758F50196A11DB11D20931B
:1039F000A5018093AC019093AD01A093AE01B0936B
:103A0000AF018091A6019091A701A091A801B0916A
:103A1000A9010196A11DB11D8093A6019093A70154
:103A2000A093A801B093A901BF91AF919F918F91ED
:103A30003F912F910F900FBE0F901F90189526E881
:103A4000230F0296A11DB11DD2CFEF92FF920F93CB
:103A50001F93CF93DF93F82E192FE62E042F81E0CA
:103A6000860F880F0E94CF0683E00E94CF06CF2DDD
:103A7000D12FEC0EFD2EF11CCE15DF05B9F007FF9E
:103A800013C0FE0184910E94CF06182F80E00E948F
:103A9000CF06812321968111EFCFDF91CF911F9126
:103AA0000F91FF90EF9008958881EDCF81E0F5CFE1
:103AB000E9EFF6E01382128288EE93E0A0E0B0E036
:103AC00084839583A683B7838BE691E0918380837B
:103AD0008FEF9FEF95878487EEE4F8E013821282E0
:103AE00089E891E091838083E4E4F8E01382128214
:103AF0008DE791E09183808387E0818781E08087F3
:103B00001582168214828783E1E0F8E01182108228
:103B10001382128214821582168217821086118EE9
:103B2000108E128E13A612A614A615AE14AE16AEE3
:103B300017AE109241081092420810924308E8EC28
:103B4000F7E0118210821382128284831782168218
:103B5000148A138A168A158A878B128E118E17A2E1
:103B600016A211A610A682A715A614A6ECE7F7E0E8
:103B70001082118212821382168A17A216A210A630
:103B800011AE10AE12AE1092C7071092C607EEE546
:103B9000F7E0118210821382128217821682118638
:103BA00010861586148617861686138A128A158A39
:103BB000148A118E108E138E128EE9E4F7E01182B2
:103BC000108213821282108617821286118617863F
:103BD0001686118A108A0895CF93DF93CDB7DEB78A
:103BE000E1970FB6F894DEBF0FBECDBF789484B5D1
:103BF000826084BD84B5816084BD85B5826085BDE9
:103C000085B5816085BD80916E00816080936E0076
:103C10001092810080918100826080938100809168
:103C20008100816080938100809180008160809319
:103C3000800080919100826080939100809191003A
:103C400081608093910080919000816080939000CA
:103C50008091C10084608093C1008091C100826026
:103C60008093C1008091C10081608093C1008091E8
:103C7000C30081608093C3008091C0008260809304
:103C8000C0008091C20081608093C20080917A0060
:103C9000846080937A0080917A00826080937A00B9
:103CA00080917A00816080937A0080917A008068A8
:103CB00080937A001092F6021092E6021092E802C7
:103CC0008091D70081608093D70080EA8093D800EC
:103CD00089B5806189BD89B5826089BD09B400FE5E
:103CE000FDCF61E070E080E090E00E9414098091D7
:103CF000D8008F7C80618093D8008091E000807F25
:103D00008093E0008091E1008E7E8093E1008DE061
:103D10008093E200559A209A0E9414188FB7F89465
:103D20004091AC015091AD016091AE017091AF0135
:103D30008FBF8091B001882349F01092B00180E0DC
:103D400090E0892B59F30E940000E8CF9091B101D7
:103D5000242F291B922F20910501921740F49F5F79
:103D6000921768F781E083BF889513BEE8CF91E092
:103D70009093B0014093B1012091B4013091B5010D
:103D80002F5F3F4F3093B5012093B401E9EFF2E08C
:103D900081118FEF00248193819381938193039408
:103DA000D1F71092D7011092D6011092D50110923E
:103DB000D4018091D3018093D2010E94B70B8093EC
:103DC000D301E091E002EC3008F06AC0F0E0E55188
:103DD000F14E0C942236F71E151F561FD51F5C1F7F
:103DE000791FAE1FD81F49210B231123A73220E1D1
:103DF000E22E00E024E635E140E070E060E090E093
:103E000080E00E94B10788E00E94C70B882319F068
:103E100081E08093E00284E00E94C70B882309F4CC
:103E20003FC083E08093E0023BC011E0109305089F
:103E300080E593ECA0E08093060890930708A09398
:103E4000080810923F081093090810920A0884E6A7
:103E500080930C0810920B088CE490E090931A0861
:103E60008093190860E070E080E00E94A50766E09A
:103E700070E08DE098E00E9499071093130815E018
:103E8000109314081092150889E098E00E94490FD9
:103E900010921B0810922D080E94B3111093E0029B
:103EA0005E9881E00E94F0055E9A49CF0E94F80E6C
:103EB0000E94500585E0B6CFE12C00E028E730E015
:103EC00040E065E070E085E090E00E94B1078091FD
:103ED0000508811108C084E00E94C70B882301F304
:103EE0001092E002DDCF84E00E94C70B8111E2CF87
:103EF000D7CF5E9886EA0E94BF0B5E9A90E1E92ECA
:103F000000E028E63DE140E070E060E090E080E025
:103F10000E94B1078EE1809349088093480885E3A9
:103F200080934A08809105080E94AC1187E191E0D6
:103F30000E94BA0D88E00E94C70B882309F4B0CF15
:103F400080911B01813041F028F0823009F0A8CF28
:103F500088E068CF86E066CF87E064CF15E01093F5
:103F6000DF0280E1E82E00E02CE635E240E070E080
:103F700060E090E080E00E94B10782E191E00E9461
:103F8000BA0D84E00E94C70B81111093E00288E013
:103F90000E94C70B882309F483CF809116018823E0
:103FA00009F484CF813009F07BCF0E94B50E78CF21
:103FB00085E08093DF0210E1E12E00E020E73DE2A2
:103FC00040E070E060E090E080E00E94B1078DE0AA
:103FD00091E00E94BA0DE12C26EC30E040E065E073
:103FE00070E088E290E00E94B10780E58093490884
:103FF0008093480884E080934A08E091D10136E03C
:10400000E39FF0011124E154FE4F80810E94AC1126
:104010001FE0F12C06E0D02EE091D101DE9EF001F0
:104020001124E154FE4F8081F81638F5EF0DF11D93
:104030008181813091F028F08230B9F0F394165FDD
:10404000EBCF612F70E0E12C00E029E432E040E0AA
:104050008AE290E00E94B107F1CF612F70E0E12C7D
:1040600000E02BE632E040E0F3CF612F70E0E12C7E
:1040700000E02CE932E040E0EBCF84E38093490894
:104080008093480880E380934A086481758190E0BA
:1040900080E04AE00E94681184E00E94C70B8823F8
:1040A00021F08091DF028093E00288E00E94C70B3C
:1040B000882309F4F5CE80911101813009F4DCC028
:1040C00050F0823009F0ECCE8091D101823008F0BE
:1040D000DDC08F5FD6C0E091D10186E08E9FF001F8
:1040E0001124E154FE4FA9EDB2E001900D928A95A2
:1040F000E1F70E94393320E230E040E050E00E94D6
:10410000B033982F872F762F66277093020860931D
:1041100001080E94393320E230E040E050E00E9484
:10412000B033982F872F762F6627709304086093FB
:10413000030810924108E0913F0842E1E49FF0013A
:104140001124EF5FF74F128608EC17E0F12CE12CF9
:1041500068EC262E312C7CE0472E512CE4E66E2EA6
:10416000712CF9E1CF2ED12CACE2AA2EBB24B39452
:10417000B5E08B2E912C8091D902E81608F052C040
:10418000D80114961C921497F701E752FD4F8181D4
:104190001B968C930E94393320E230E040E050E0DF
:1041A0000E94B033982F872F762F6627F8017183EE
:1041B00060830E94393320E230E040E050E00E940A
:1041C000B033982F872F762F6627D80113967C93CC
:1041D0006E9312971E961C921E971B968C911B979E
:1041E0008130A1F158F18230E1F1E0913F0822E104
:1041F0002E9FF0011124EF5FF74F608970E08785F3
:104200009B01281B31092F5F3F4F4DA5429FC001E5
:10421000439F900D11240E940E36662349F1D80168
:104220001A966C933FEFE31AF30A0D5E1F4F43E0BB
:10423000E416F10409F09FCF8AE0F4CDF80171860D
:104240006086D782C682F5E0FDA7CFCF19963C9253
:104250002E92189717965C924E921697BAE0BDA7C9
:10426000C4CFF801B186A08697828682FFE0ECCFAA
:1042700021E0F8012287D6CF8091D101882321F057
:1042800081508093D1010CCE82E0FBCF1092D101FE
:1042900007CE85E08093DF0200E1E02E00E024E716
:1042A00035E340E070E060E090E080E00E94B1071C
:1042B000E0913F0812E11E9FF0011124EF5FF74FDC
:1042C000C18456E0C59E60011124C601885B9E4FE3
:1042D0006C01DC012D913D914C9164E070E084E033
:1042E00090E00E94B1078AE28093490880934808D1
:1042F00084E080934A08E0913F081E9FF00111245A
:10430000EF5FF74F83850E94AC11F6012381348162
:104310004581E12C60E370E084E090E00E94B10709
:104320000091BE01011108C08091BD01811104C03E
:1043300088E091E00E94BA0D84E00E94C70B182F1C
:10434000811105C088E00E94C70B882339F0809155
:10435000BD01882309F443C01092BD018091BE01C4
:104360008823A9F126E142E466E270E08FE190E063
:104370000E94870C00E024E140E467E270E080E204
:1043800090E00E94B70CE12C22EF30E040E068E2C0
:1043900070E082E290E00E94B1078EE380934908CA
:1043A0008093480887E280934A086091BB0170912E
:1043B000BC0190E080E04AE00E94681127E231E011
:1043C00040E062E370E082E290E00E94B1078091F9
:1043D000BD01882309F464CD0E94AA0D61CD00239C
:1043E00091F1112319F01092BE01B8CF88E00E941C
:1043F000C70B882309F4B6CF80910608909107086F
:10440000A09108082091BB013091BC0140E08217C7
:104410009307A407A0F0821B930BA40B80930608BC
:1044200090930708A0930808E0913F0822E1E29FDB
:10443000F0011124EF5FF74F84E68387D4CF81E04A
:104440008093BD018BCF8091DF02111113C088E0F2
:104450000E94C70B882309F4BACF80910C018230E7
:1044600009F47CC050F4882309F458C0813009F065
:1044700075CF89E08093E00271CF843071F108F448
:1044800083C0853009F06ACF20913F0830E0C90130
:10449000029663E070E00E940E3642E1489FF00110
:1044A000499FF00D1124EF5FF74F4085411112C075
:1044B000C901019663E070E00E940E3622E1289F58
:1044C000F001299FF00D1124EF5FF74F2085222383
:1044D00009F47DCF80933F0841CF20913F0830E021
:1044E000C9010196E3E0F0E0BF010E940E3642E10F
:1044F000489FD001499FB00D1124AF5FB74F189668
:104500005C915111E7CFC9010296BF010E940E369E
:10451000489FF001499FF00D1124D6CF81E0809390
:10452000BE0180913F0812E1819FC0011124875F85
:10453000974F0E94490FE0913F081E9FF001112400
:10454000EF5FF74F94E68385392F381B399FC00101
:1045500011249093BC018093BB0100CF8091060889
:1045600090910708A0910808803345E79407A105BA
:1045700020F082E00E94640FF1CE80329E44A105BB
:1045800008F425CF81E0F6CFE0913F088E2F90E030
:10459000A2E1EA9FF0011124EF5FF74F208522236B
:1045A00009F415CFE18530E020E0E33038F4F0E0A5
:1045B000EE0FFF1FE65AFE4F208131813695279579
:1045C000C0900608D0900708E0900808C20ED31EDD
:1045D000E11CC0920608D0920708E092080822E188
:1045E000289FF001299FF00D1124EF5FF74F1086EF
:1045F0008091090881110BC080911B08811109C0AD
:1046000080912D08882309F4E2CE82E063CF80E018
:1046100061CF81E05FCF88E08093DF020E94A41326
:104620003FCCE0913F080E2F10E0B2E1EB9FF0018C
:104630001124EF5FF74F8285813009F02BC1109272
:10464000D8018091D90281112BC05E9886EA0E9420
:10465000BF0B5E9AE0913F0882E1E89FF0011124D0
:10466000EF5FF74F12862091DD023091DE028091DC
:10467000060890910708A0910808820F931FA11DBA
:104680008093060890930708A09308080E94B3112E
:1046900085E08093E002809105088F5F8093050894
:1046A00010E000E019821A821C821B82F801EE0FD2
:1046B000FF1FEE0FFF1FE752FE4F60817181828165
:1046C0009381AE014F5F5F4F0E946E10882339F0D7
:1046D0006A8170E0898141E090E00E94DD0B0F5F0C
:1046E0001F4F00341105F1F68091B6015E988823C2
:1046F00009F43AC387EA0E94BF0B5E9A8091B60123
:1047000081508093B601A8ECB7E0BCA7ABA761E0ED
:10471000662E68E0762E8D01EE24E39472E1F72E8A
:10472000E5E0DE2EF8018481811154C3608171813E
:1047300040E050E280910108909102080E940E052D
:104740009C8F8B8FD80112966D917C9140E050E246
:1047500080910308909104080E940E05988F8F8B1A
:10476000092E000CAA0BBB0BBA2FA92F982F882754
:1047700089839A83AB83BC83BE01695E7F4FCE0180
:1047800001960E942F0F4B015C018B8D9C8D092E91
:10479000000CAA0BBB0BBA2FA92F982F88278B8B45
:1047A0009C8BAD8BBE8BBE01655E7F4FCE01439669
:1047B0000E942F0F860E971EA81EB91EB1E08B1601
:1047C0009104B0E1AB06B1040CF032C30E9439335E
:1047D0002AE030E040E050E00E94B033672B682BC5
:1047E000692BE9F420913F0830E0F29EF001F39E3E
:1047F000F00D1124EF5FF74F8385882381F0D0926D
:10480000B601F8019285981708F0B3C2891BF29E91
:10481000F001F39EF00D1124EF5FF74F8387D8016D
:104820001F968C911F97811112C01F96EC920E94C7
:10483000393322E030E040E050E00E94B03321E024
:10484000672B682B692B09F420E0F801208BD80135
:1048500050964C912F89388D37FF03C031952195A3
:1048600031098B8D9C8D97FF03C09195819591099E
:10487000281739070CF087C2442309F47CC2F801D9
:1048800086819781F80122813381820F931F938360
:1048900082838BC21092BA011092B90188E00E9403
:1048A000C70B882359F084E00E94C70B882331F09E
:1048B0008091070191E089278093070188E00E9499
:1048C000C70B882361F140914008E42FF0E0CF014D
:1048D0000196A3E0EA2EF12CB7010E940E3652E1B8
:1048E000509F9001519F300D11242F5F374FD901F8
:1048F000A80FB91F52965C9151110BC0CF010296BF
:10490000B7010E940E36280F391FF9012289222390
:1049100031F0481721F0809340081092D80184E0CC
:104920000E94D20B8111BEC01092D80180E20E9479
:10493000D20B8823B1F0E0913F0842E1E49FF001FF
:104940001124EF5FF74F218990914208921B9093B9
:10495000420880914308820F8093430881E080934E
:10496000BA0180E40E94D20B8823B1F0E0913F08A5
:1049700052E1E59FF0011124EF5FF74F918980919B
:104980004208890F8093420880914308891B8093D5
:10499000430881E08093BA0180E80E94D20B88230B
:1049A00009F4DCC180E80E94D20B1FEF811111E0F5
:1049B000809142080E943910AC01812F110F990B90
:1049C000182FF12CE0913F0802E10E9FF001112415
:1049D000EF5FF74FA08DB18D2F2D382F0E94283615
:1049E000672F782F892F992787FD9A959A01DB01E8
:1049F0000E942836BB2797FDBA95A92F982F872F9D
:104A00002091010830910208820F931F90930208B1
:104A100080930108809142080E945310AC01E091FC
:104A20003F080E9FF0011124EF5FF74FA08DB18D6D
:104A30002F2D312F0E942836672F782F892F992705
:104A400087FD9A959A01DB010E942836BB2797FDC6
:104A5000BA95A92F982F872F209103083091040829
:104A6000820F931F909304088093030860E070E224
:104A700080910108909102080E9404059093020819
:104A80008093010860E070E280910308909104082F
:104A90000E940405909304088093030881E08093AA
:104AA000BA01CFCD88E00E94D20B81113DCF809119
:104AB0003F0890914008692E712CE82EF12CF301EB
:104AC00022E1829FE00DF11D1124EF5FF74F8289F3
:104AD0009FEF980F923008F04AC02589222309F4ED
:104AE00046C03091B801432F50E090E080E0BA0119
:104AF000082E02C0759567950A94E2F760FD32C0F2
:104B000041E050E0082E01C0440F0A94EAF7342B2C
:104B10003093B80136E0389FF001399FF00D112431
:104B2000E25AF84F809101089091020891838083A6
:104B300080910308909104089383828380914208B6
:104B40008483158281E08093B90182E18E9DF0011A
:104B50008F9DF00D1124EF5FF74FE60DF71D2150EB
:104B6000258BE4CE01968530910509F6DFCE9DEFC9
:104B7000980F923008F0E9C082E18E9DF0018F9D80
:104B8000F00D1124EF5FF74FE60DF71D858988239F
:104B900009F4CCCE8091B7018111C8CE48EC57E022
:104BA00058A34F8F10E000E0DD24DA94812C912C83
:104BB0007FE3A72E72E4B72EC02EAF8DB8A1149656
:104BC0008C91813009F46FC01F8A188E1A8E198E4D
:104BD000B3E1B09FC001B19F900D1124FC01E853D7
:104BE000F84F2F016081718182819381AE01495E0E
:104BF0005F4F0E946E10882309F455C06091010830
:104C00007091020840E050E2D2018D919C910E9487
:104C10000E059E8F8D8F609103087091040840E00F
:104C200050E2F201828193810E940E059C8F8B8F4E
:104C3000092E000CAA0BBB0BBA2FA92F982F88277F
:104C40008B8B9C8BAD8BBE8BBE01655E7F4FCE0187
:104C500043960E942F0F1B012C018D8D9E8D092ED6
:104C6000000CAA0BBB0BBA2FA92F982F882789837A
:104C70009A83AB83BC83BE01635E7F4FCE010196F6
:104C80000E942F0FDC01CB01820D931DA41DB51DC9
:104C900088159905AA05BB051CF0D501C401CD2CCA
:104CA0004C015D01DC2C0F5F1F4F2F8D38A12D5E55
:104CB0003F4F38A32F8F0330110509F07DCF3FEF11
:104CC000D31609F433CE80914F078F3FC1F1809105
:104CD00056078F3FB9F180915D078F3F09F026CECF
:104CE00082E090E027E0289FF001299FF00D112439
:104CF000E75BF84F809101089091020891838083CF
:104D000080910308909104089383828380914208E4
:104D100084831582D68286E08093B70181E08093F8
:104D2000B90182E18E9DF0018F9DF00D1124EF5F9E
:104D3000F74FE60DF71D85898150858BF7CD90E003
:104D400080E0D0CF81E090E0CDCF853009F0EECD8E
:104D500081E08093D8018093B901E8CD80E10E9481
:104D6000D20B81111FCE6DCC86EA0E94BF0B5E9ADA
:104D7000CACC80E04CCDD80116968D919C9191952E
:104D8000819591097FCD442309F44EC0D801169630
:104D90008D919C91919581959109D8012D913C918E
:104DA0001197820F931F8D939C9360E070E2D8015E
:104DB0008D919C910E940405F8019183808360E0AD
:104DC00070E2828193810E940405D80113969C931E
:104DD0008E9312970D5E1F4F6016710609F0A2CCDC
:104DE0008091D9024091B4015091B5014770552787
:104DF00090E033E161E0981708F0AFC0399FF0010F
:104E00001124E853F84F2481223061F441155105F3
:104E100049F424857585271708F49CC08150648364
:104E2000148615869F5FE7CFF80186819781B5CFFD
:104E3000F801B1E08B169104B0E9AB06B1048CF532
:104E400017864B8D5C8D868197819C018417950711
:104E500044F022273327281B390B241735070CF47D
:104E60009A014F89588D841795073CF0919581954B
:104E70009109841795070CF4CA01D8014D915C91F2
:104E80001197240F351F11963C932E9312962D9156
:104E90003C911397820F931F13969C938E931297B6
:104EA00084CF8189811119C00E94393324E030E018
:104EB00040E050E00E94B033D80152966C930E94BB
:104EC00039332BE030E040E050E00E94B0336B5FBC
:104ED0007F4F8F4F9F4FF801618BD80151968C9176
:104EE0005197815051968C93519752964C9152976D
:104EF00050E01696ED91FC91DA01AC5BBE4F8C91BF
:104F0000082E000C990B382F20E0DF010E94283674
:104F1000872E982EA92EBB24A7FCBA94D8012D91D8
:104F20003C911197C401820F931F8D939C93405C19
:104F30005E4FDA018C91082E000C990B382F20E07F
:104F4000DF010E942836BB2797FDBA95A92F982F1D
:104F5000872F98CC2F5F248765CF8093D902F12CBF
:104F600013E1D12E03E0602E712C86E0C82E8091D3
:104F7000D902F81608F007C1DF9CF0011124E853AC
:104F8000F84F8481813009F4B7C0F09206011B8A82
:104F90001C8A1E8A1D8A8F2C0F2C000C9908D89C05
:104FA000C001D99C900D1124FC01E853F84F5F011A
:104FB0006081718182819381AE014D5E5F4F0E945D
:104FC0006E10882309F498C0F2E0FF156CF000E041
:104FD00010E120E830E048E762E08D899E890E9478
:104FE0006D0DD50115968C93D89CF001D99CF00DD0
:104FF0001124E853F84F848181119FC00C891B89CB
:105000008385882389F0813009F478C06DE278E0E7
:10501000823061F070E060E080E08C9D600D711D79
:105020001124665071091DC069E978E0D89CF0012F
:10503000D99CF00D1124E853F84F258190E080E0D1
:10504000FC01EB5DF74FE491AC014F5F5F4F2E1712
:1050500008F057C0C89E9001C99E300D1124620F00
:10506000731F46E050E0CE0101960E949133FE018D
:105070003196DE0117968C2D01900D928A95E1F7FD
:1050800086E0FE013796DE011D9601900D928A950D
:10509000E1F72F8138854985EA849B84A090060139
:1050A0000A2C000CBB088C84DA9CF001DB9CF00D10
:1050B0001124E853F84F858681102AC01486DA9CA3
:1050C000F001DB9CF00D1124E853F84F5685892D33
:1050D0008695A02FA81BBB0BBD018E2D8695A12FF9
:1050E000A81BBB0BCD01552311F15150568701E090
:1050F000292D4E2D0E94B70CF39439CF63E678E04A
:1051000095CFCA014830510509F09ACF89E085CF83
:105110008091B4019091B501B3010E94FA35892BB9
:1051200071F68485881550F68F5F8487C8CFB0E10B
:10513000EB2E04850E94B107DFCF8230E9F60C899F
:105140001B8985810E94BC1229833A834B835C832F
:105150006D837E83209106013D2D2303F0011124F0
:10516000E853F84F29813A814B816695802F861B41
:10517000990BBC015695A0E1EA2E0485A12FA51B31
:10518000BB0BCD01D7CFBEE5AB2EB7E0BB2E850163
:10519000F12CE12C86E0882E66246394712C90908B
:1051A000B801892D90E00E2C02C0959587950A9440
:1051B000E2F780FF5CC0F80184810E9439106C0125
:1051C000D80114968C910E945310AC0123E330E077
:1051D000D6010E943036BB2797FDBA95A92F982F8C
:1051E000872FF80120813181820F931F9183808363
:1051F00023E330E0DA010E943036BB2797FDBA95F1
:10520000A92F982F872F22813381820F931F938399
:1052100082838E9CC0018F9C900D11249C01225A88
:10522000384F690160E070E2D9018D919C910E9434
:105230000405F6019183808360E070E282819381AE
:105240000E940405D60113969C938E931297F80141
:1052500085818F5F8583823350F0C3010E2C01C09E
:10526000880F0A94EAF7809598229092B801FFEF90
:10527000EF1AFF0A0A5F1F4F25E0E216F10409F05A
:105280008ECFD12CC12C62E1762E8090B8016C2C8F
:10529000882D90E00C2C02C0959587950A94E2F732
:1052A00080FFA8C058ECE52E57E0F52E912CD701D1
:1052B00014968C911497813009F473C1F5018081A3
:1052C00091812D913C911197821B930B9C8F8B8F19
:1052D0008281938112962D913C91821B930B988F22
:1052E0008F8B092E000CAA0BBB0BBA2FA92F982F5E
:1052F000882789839A83AB83BC83BE01695E7F4F15
:10530000CE0101960E942F0F1B012C018B8D9C8DCD
:10531000092E000CAA0BBB0BBA2FA92F982F882798
:105320008B8B9C8BAD8BBE8BBE01655E7F4FCE01A0
:1053300043960E942F0F260E371E481E591ED50178
:1053400015968C91B82F23E330E0A0E00E94303610
:10535000BB2797FDBA95A92F982F872F00E010E162
:1053600020E830E043E061E00E946D0D282FF70156
:10537000858168E10E94EE35820F9927991F982F49
:1053800088279C8B8B8B092E000CAA0BBB0BBA2F8A
:10539000A92F982F882789839A83AB83BC83BE016A
:1053A0006D5E7F4FCE0101960E942F0F621573052F
:1053B000840595050CF4F5C081E090E001C0880FEC
:1053C0006A94EAF7809588228092B80180913F081C
:1053D00020914008789EC00111248F5F974F820F63
:1053E000911DDC0152968C910E941C10682F892D12
:1053F0000E941A13FFEFCF1ADF0A26E0A20EB11C9B
:1054000035E0C316D10409F040CF18A21F8E809159
:10541000B80190E00F8C02C0959587950A94E2F749
:10542000AC01417055275AA349A380FFC2C019821D
:105430001A821C821B82A6E08F8D98A1A89FF00182
:10544000A99FF00D1124E25AF84F60817181828189
:105450009381AE014F5F5F4F0E946E10882309F465
:10546000A8C06A80E98000E010E120E830E043E075
:1054700061E08B819C810E946D0D712CF12C082FB5
:1054800010E022242394312C201A310A88279927EE
:10549000801B910BFC01EE0FFF1FFEA3EDA3B301D8
:1054A000600F711F41E0C7010E94DD0BB301601B5B
:1054B000710B41E0C7010E94DD0B41E0B301C70160
:1054C000800F911F0E94DD0B41E0B301C701801BDB
:1054D000910B0E94DD0B512C412CF8A6EFA27AA66D
:1054E00069A6401651060CF064C037FC0AC0015092
:1054F00011092DA13EA12E5F3F4F3EA32DA3220EE9
:10550000331E3FEF431A530A49A15AA14E5F5F4F22
:105510005AA349A3240E351E8FA098A4840C951C71
:1055200041E06301C00ED11EB601C4010E94DD0B33
:10553000AFA0B8A4A418B50841E0B601C5010E9407
:10554000DD0B41E06301C01AD10AB601C4010E941B
:10555000DD0B41E0B601C5010E94DD0BC9A4DAA450
:10556000C40CD51C41E0B6015701A00EB11EC50107
:105570000E94DD0B41E0B6016701C01AD10AC601E5
:105580000E94DD0B89A49AA48418950841E0B40117
:10559000C5010E94DD0B41E0B401C6010E94DD0B94
:1055A000A0CF9394B3E1EB0EF11CE3E09E127FCE0B
:1055B00021CF8F8D98A1019698A38F8F059709F021
:1055C00026CF80913F0820914008A2E18A9FC00128
:1055D00011248F5F974F820F911DFC0182898350A8
:1055E000823008F0E2C078EC672E77E0772EF12C5D
:1055F000E12C1FEF812C912CEFE3AE2EE2E4BE2EC6
:105600000E2DD30114968C91813009F46FC01F8A3E
:10561000188E1A8E198EB3E1BE9DC001BF9D900DEC
:105620001124FC01E853F84F6F0160817181828180
:105630009381AE01495E5F4F0E946E10882309F48A
:1056400055C0609101087091020840E050E2D60117
:105650008D919C910E940E059E8F8D8F6091030805
:105660007091040840E050E2F601828193810E942B
:105670000E059C8F8B8F092E000CAA0BBB0BBA2F2B
:10568000A92F982F882789839A83AB83BC83BE0177
:10569000655E7F4FCE0101960E942F0F1B012C01EA
:1056A0008D8D9E8D092E000CAA0BBB0BBA2FA92F36
:1056B000982F88278B8B9C8BAD8BBE8BBE01635E36
:1056C0007F4FCE0143960E942F0FDC01CB01820D4C
:1056D000931DA41DB51D88159905AA05BB051CF0D1
:1056E000D501C401012F4C015D01102FFFEFEF1A0E
:1056F000FF0A23E1620E711C33E0E316F10409F0A6
:105700007FCF1F3F09F451C043E1149F8001112452
:105710000853184FD80114968C911497813009F4CE
:1057200044C019821A821C821B826D917D918D91D9
:105730009C91AE014F5F5F4F0E946E108823A9F1CC
:105740002A81498150E0D8011596EC91E695F0E068
:10575000CA018E1B9F0B97FD8DC28038910514F0F6
:105760008FE790E030E0B9016E1B7F0B77FD84C2BC
:105770006034710514F06FE370E02E0F3F1F20348A
:10578000310514F02FE330E0261B4E0F5F1F403829
:10579000510514F04FE750E0481B062E000C770B24
:1057A000082E000C990B0E94870C8091B70188236A
:1057B00019F081508093B701E9E4F7E0F8A3EF8F87
:1057C0000EE517E07F0143E1642E77247A94D70138
:1057D00016968C9116978F3F81F0689EC001112418
:1057E000FC01E853F84F5F018481813009F046C223
:1057F00016967C92169715961C92F7E0EF0EF11C08
:105800000E151F0521F769E4262E67E0362E78E194
:10581000A72E99249A94E2E18E2ED1011696BC907F
:10582000BFEFBB1609F4AFC0E3E1EB9DC00111244B
:105830009C012853384F6901D90114968C91149713
:10584000813009F4A0C06D917C9140E050E2F101FB
:10585000808191810E940E059C8F8B8FD6011296BC
:105860006D917C9140E050E2F101828193810E9430
:105870000E05988F8F8B092E000CAA0BBB0BBA2F2D
:10588000A92F982F882789839A83AB83BC83BE0175
:10589000695E7F4FCE0101960E942F0F2B013C01C4
:1058A0008B8D9C8D092E000CAA0BBB0BBA2FA92F38
:1058B000982F88278B8B9C8BAD8BBE8BBE01655E32
:1058C0007F4FCE0143960E942F0F460E571E681E33
:1058D000791ED10115966C9170E090E080E00E94F5
:1058E000BD342AE939E949E15EE30E94723520E0DE
:1058F00030E040E853E40E9472350E948534CB01C9
:1059000000E018E120E830E046E061E00E946D0D23
:10591000282FF60185816A2D0E94EE35820F992786
:10592000991F982F88279C8B8B8B092E000CAA0B14
:10593000BB0BBA2FA92F982F882789839A83AB8313
:10594000BC83BE016D5E7F4FCE0101960E942F0F7A
:105950006415750586059705B4F0D10116969C92DD
:1059600080913F0820914008889EC00111248F5FDC
:10597000974F820F911DFC0182890E941C10682F95
:105980008B2D0E941A13F7E02F0E311CE214F30442
:1059900009F043CFAF8DB8A116968C918F3F09F0D7
:1059A00014C2EF8DF8A13796F8A3EF8F2E163F069D
:1059B00089F78091D801882309F493C28091420825
:1059C0000E9439106C01809142080E9453105C01C2
:1059D00080913F0820914008B2E18B9FC0011124C3
:1059E0008F5F974F820F911DFC0182890E941C10CE
:1059F0008F8FF12CE12CABA5BCA514968C91811155
:105A000077C06091010870910208B3E1BE9D8001EA
:105A1000BF9D100D11240853184F40E050E2F801CB
:105A2000808191810E940E054C0160910308709164
:105A3000040840E050E2D80112968D919C910E949A
:105A40000E05AC019C01D5010E942836272E382E68
:105A5000492E552447FC5A949401D6010E942836B9
:105A6000672F782F892F992787FD9A95260E371E45
:105A7000032C000C44085508542C432C322C2224AF
:105A8000B1E02B163104B0E14B06510488F59501C5
:105A9000D4010E942836272E382E492E552447FC43
:105AA0005A949A01D6010E942836672F782F892FA1
:105AB000992787FD9A95261A370A9101330C440BD2
:105AC000550B542F432F322F2227CA01B9010E94B0
:105AD000373600E10E94713619012A01E1E02E16E5
